:03028B008FFE22C1
:03028E008FFD22BF
:0801BD00C293D2927F207E0361
:1001C500E4FDFCC3ED9FEC9E50070DBD00010C80C6
:0101D500F237
:0101D6002206
:0A01E3007FF412028B7FFF02028EF0
:0A01ED007FF412028B7FFA02028EEB
:0A01F7007FF412028B7FF002028EEB
:0A0201007FF412028B7FE102028EEF
:0A020B007FF412028B7FCD02028EF9
:0A0215007FF612028B7FB402028E06
:0A021F007FF812028B7F9602028E18
:0A0229007FFA12028B7F7302028E2F
:0A0233007FF012028B7FFF02028EA3
:0A023D007FE812028B7FFF02028EA1
:0A0247007FDC12028B7FFF02028EA3
:0A0251007FD212028B7FFF02028EA3
:0A025B007FBE12028B7FFF02028EAD
:0A0265007FA812028B7FFF02028EB9
:0A026F007F8C12028B7FFF02028ECB
:0A0279007FBE12028B7FC802028EC6
:08028300E4FF12028B02028E5F
:1000BF003081047F0180027F003080047E01800246
:1000CF007E00EE2FFF3082047E0180027E00EF2E35
:1000DF00FF3083047E0180027E00EF2EFF30840408
:1000EF007E0180027E00EF2EFF3085047E018002AC
:1000FF007E00EF2EFF3086047E0180027E00EF2E01
:0D010F00FF3087047E0180027E00EF2EFF8E
:01011C0022C0
:100003008F08D292D2931201C1E580700512028348
:1000130080F7AF80EF120159006701005D020062B3
:1000230003005304005806004908004E0C006C10EE
:10003300007620007130008040007B60008A8000E1
:1000430085C00000008F1201ED80441201F7803F4C
:10005300120201803A12020B80351202158030120F
:10006300021F802B120229802612023380211202E2
:100073003D801C1202478017120251801212025B4C
:10008300800D120265800812026F80031201E312D1
:1000930000BFEFC3940550030200151200BFEFC366
:1000A300940540051201E380F21508E50860030298
:0C00B30000151201E37F307E750201C5CC
:10017F001201BDE5806480600512027980F5D2938B
:0F018F00C2921201C11202797F407E1F0201C588
:10019E00D293C2921201C1E5806401600512027908
:0F01AE0080F51201BD1202797F407E1F0201C54C
:10011D00E4F5D9D2DE75DB4275DC4275DD4275DE64
:10012D00427B05AF0312000312017F7F0112000312
:10013D0012017FDBEE12019E12019E7F021200035F
:0C014D001202837FE87EFD1201C580F4E1
:030000000201D723
:0C01D700787FE4F6D8FD75810802011D58
:10015900D083D082F8E4937012740193700DA3A335
:1001690093F8740193F5828883E473740293686049
:06017900EFA3A3A380DF49
:00000001FF
