:030281008FFE22CB
:030284008FFD22C9
:0801BD00C293D2927FFA7E008A
:1001C500E4FDFCC3ED9FEC9E50070DBD00010C80C6
:0101D500F237
:0101D6002206
:0A01E3007FF41202817FFF02028404
:0A01ED007FF41202817FFA020284FF
:0A01F7007FF41202817FF0020284FF
:0A0201007FF41202817FE102028403
:0A020B007FF41202817FCD0202840D
:0A0215007FF61202817FB40202841A
:0A021F007FF81202817F960202842C
:0A0229007FFA1202817F7302028443
:0A0233007FF01202817FFF020284B7
:0A023D007FE81202817FFF020284B5
:0A0247007FDC1202817FFF020284B7
:0A0251007FD21202817FFF020284B7
:0A025B007FBE1202817FFF020284C1
:0A0265007FA81202817FFF020284CD
:0A026F007F8C1202817FFF020284DF
:08027900E4FF1202810202847D
:1000BF003081047F0180027F003080047E01800246
:1000CF007E00EE2FFF3082047E0180027E00EF2E35
:1000DF00FF3083047E0180027E00EF2EFF30840408
:1000EF007E0180027E00EF2EFF3085047E018002AC
:1000FF007E00EF2EFF3086047E0180027E00EF2E01
:0D010F00FF3087047E0180027E00EF2EFF8E
:01011C0022C0
:100003008F08D292D2931201C1E580700512027952
:1000130080F7AF80EF120159006701005D020062B3
:1000230003005304005806004908004E0C006C10EE
:10003300007620007130008040007B60008A8000E1
:1000430085C00000008F1201ED80441201F7803F4C
:10005300120201803A12020B80351202158030120F
:10006300021F802B120229802612023380211202E2
:100073003D801C1202478017120251801212025B4C
:10008300800D120265800812026F80031201E312D1
:1000930000BFEFC3940550030200151200BFEFC366
:1000A300940540051201E380F21508E50860030298
:0C00B30000151201E37FD07E840201C51D
:10017F001201BDE580648060051201E380F5D29322
:0F018F00C2921201C11201E37F947E2A0201C5C0
:10019E00D293C2921201C1E580640160051201E39F
:0F01AE0080F51201BD1201E37F947E2A0201C584
:10011D00E4F5D9D2DE75DB4275DC4275DD4275DE64
:10012D00427B05AF0312000312017F7F0112000312
:10013D0012017FDBEE12019E12019E7F021200035F
:0C014D001202797FE87EFD1201C580F4EB
:030000000201D723
:0C01D700787FE4F6D8FD75810802011D58
:10015900D083D082F8E4937012740193700DA3A335
:1001690093F8740193F5828883E473740293686049
:06017900EFA3A3A380DF49
:00000001FF
