:030269008FFE22E3
:03026C008FFD22E1
:040185007FE87E038E
:10018900E4FDFCC3ED9FEC9E50070DBD00010C8002
:01019900F273
:01019A002242
:0A01CD007FFA1202697FFF02026C44
:080259007FFA12026902026C37
:0A01D7007FFA1202697FF502026C44
:0A01E1007FFA1202697FF002026C3F
:0A01EB007FFA1202697FEB02026C3A
:0A01F5007FFA1202697FE602026C35
:0A01FF007FFA1202697FE102026C30
:0A0209007FFA1202697FDC02026C2A
:0A0213007FF51202697FFF02026C02
:0A021D007FF01202697FFF02026CFD
:0A0227007FEB1202697FFF02026CF8
:0A0231007FE61202697FFF02026CF3
:0A023B007FE11202697FFF02026CEE
:0A0245007FDC1202697FFF02026CE9
:0A024F007F731202697FFF02026C48
:08026100E4FF12026902026CC5
:1000C8003081047F0180027F003080047E0180023D
:1000D8007E00EE2FFF3082047E0180027E00EF2E2C
:1000E800FF3083047E0180027E00EF2EFF308404FF
:1000F8007E0180027E00EF2EFF3085047E018002A3
:100108007E00EF2EFF3086047E0180027E00EF2EF7
:0D011800FF3087047E0180027E00EF2EFF85
:0101250022B7
:100003008F08D292D293120185E5807005120261A6
:1000130080F7AF80EF12015F006701005D020062AD
:1000230003005304005806004908004E0C006C10EE
:10003300007620007130008040007B60008A8000E1
:1000430085C00000008F12025980441201D7803FFF
:100053001201E1803A1201EB80351201F580301272
:1000630001FF802B12020980261202138021120243
:100073001D801C1202278017120231801212023BCC
:10008300800D120245800812024F80031201CD1227
:1000930000C8EFC3940550030200151200C8EFC354
:1000A300940540051201CD80F21508E508600302AE
:1000B3000015F5081201CD7F607EEA1201897F30B9
:0500C3007E75020189B9
:10019B00C293D292120185E5806440600512025928
:0301AB0080F522BA
:1001AE00D293C292120185E580640260051201CDE0
:0301BE0080F522A7
:10012600E4F5D9D2DE75DB4275DC4275DD4275DE5B
:10013600427B06AF0312000312019B7F01120003EC
:1001460012019BDBEE1201AE7F0212000312026166
:090156007F107E2712018980F45C
:030000000201C139
:0C01C100787FE4F6D8FD75810802012665
:10015F00D083D082F8E4937012740193700DA3A32F
:10016F0093F8740193F5828883E473740293686043
:06017F00EFA3A3A380DF43
:00000001FF
