:1000000000308A00C52B0000FF00030E8301A10011
:100010000A08A0008A010408A2007708A300780853
:10002000A4007908A5007A08A6007B08A70083131E
:1000300083128B1E1D280B193028220884002308E8
:10004000F7002408F8002508F9002608FA00270818
:10005000FB0020088A00210E8300FF0E7F0E09009E
:100060008A110A1286280A108A100A1182074E3451
:100070006834693465347434203464346F343A3409
:1000800000340A108A100A11820751345534413461
:1000900020344D34553443342034433448344F34C1
:1000A0002034503448344534503400340A108A1017
:1000B0000A118207533465346E3473346F347234EA
:1000C00020345B342D344C344D34333435342D34BA
:1000D0005D3400340A108A100A118207C034F934E2
:1000E000A434B034993492348234F8348034903467
:1000F0000A108A100A1182074034793424343034CB
:100100001934123402347834003410348C308100C5
:100110000512851185160030B500831687018312FC
:100120002A0887008512851105160030B500831650
:100130008701831229088700851585120512003072
:10014000B500831687018312280887000B118A11D6
:100150000A121D2809140911891009105330F700DB
:10016000F70BB02800342830B900393084008313ED
:1001700000080319C8280630F800F701F70BBE285D
:10018000F80BBD287B30F700F70BC428800BBB2889
:10019000360EF700F030F7057708203EB900370D2E
:1001A000F700F70DF70DF830F70577083907BA00B3
:1001B000380DF700F70DFC30F70577083A0788008F
:1001C000AA208A110A12042C360DF700F70DFC3014
:1001D000F7057708083EB9000310370D39073807CF
:1001E0008800AA208A110A12092C091409158910FD
:1001F00009105330F700F70BFB280034360B0529A4
:1002000001303702803E8800092901303702C03EA4
:100210008800AA200034AE012E083320003A0319CA
:1002200018292E083320F8008800F520AE0A0C2982
:100230000130B6000C30B700FE202E308800F520CB
:100240000130B6000E30B700FE20DF308800F52008
:1002500043308800F5200230B6000130B700FE20A0
:10026000AE012E085620003A03193D292E085620CB
:10027000F8008800F520AE0A312900348E30F700EE
:100280004508F8004408F900FA01F808031D52294E
:100290007908F800F9010830F702F808031D52291F
:1002A000F7015A290310F81B5929F90DF80DF70326
:1002B0005229F813003444080319202AD0004808B2
:1002C0000319202AD002031C6A297F30D0070318A3
:1002D000202A70298130D002031C202A0319202AE9
:1002E0005008F700F801F901FA01CF014508CE00E6
:1002F000CE174608CD004708CC001930D0004B0877
:10030000CC02031893290130CD0203189329CE02A1
:1003100003189329CF0203189329CF0ACE0ACD0AD6
:100320004B08CC07C5294A08CD020318AE29013075
:10033000CE020318AE29CF020318AE29CF0ACE0A87
:100340004A08CD074B08CC07031CC529CD0A031D5D
:10035000C529CE0A031DC529CF0AC52949088038F9
:10036000CE020318C4290130CF020318C429CF0AD2
:1003700049088038CE074A08CD07031CA229CE0AB7
:10038000031DA229CF0AA2297A14D00BC829D32988
:100390000310CC0DCD0DCE0DCF0D0310FA0DF90DC0
:1003A000F80DD10D7F29511CDB290310F80CF90C35
:1003B000FA0CD10CDE29F7030319202AD11B072AD6
:1003C0000310CC0DCD0DCE0DCF0D4B08CC02031874
:1003D000F3290130CD020318F329CE020318F329C3
:1003E000CF02031C162A4A08CD020318FE29013049
:1003F000CE020318FE29CF02031C162A49088038B2
:10040000CE020318072A0130CF02031C162AFA0A6B
:10041000031D162AF90A031D162AF80A031D162AB7
:10042000F70A0319202AF80CF90CFA0C4508D00039
:100430004908D006D01F1E2AF817242AF813242AA8
:10044000F701F801F901FA01003446080319952A69
:10045000CE004A080319952ACE070318362A7F30A2
:10046000CE02031C952A0319952A3A2A8130CE0719
:100470000318952A4E08F700F801F901FA01470818
:10048000D200D2174808D1004908D0001830CE0059
:10049000CF01501C632A4D08FA07031C552AF90A9C
:1004A000031D552AF80A0319CF174C08F907031C36
:1004B0005C2AF80A0319CF174B08C800C817480868
:1004C000F8070318CF17CF0DF80CF90CFA0CD20C63
:1004D000D10CD00C0310CE0B482A0130F7070318BB
:1004E000952AF81B7A2AD20DFA0DF90DF80DF703AB
:1004F0000319952AD21F8B2AFA0A031D8B2AF90A9F
:10050000031D8B2AF80A031D8B2AF80CF90CFA0C30
:10051000F70A0319952A4708CF004B08CF06CF1FCB
:10052000932AF817992AF813992AF701F801F90183
:10053000FA0100348E30F7004208F7024308F90050
:100540004408F800F917F7080319B12A0310F9084D
:10055000031DAD2AF8080319B12AF90CF80CF70BA2
:10056000A62AC31FB82AF809F909F80A0319F90AD3
:1005700000341F151F19BA2A1F19BC2A1E08FA00B9
:1005800083161E088312C4007A08C5003E2177082E
:10059000B6007808B7007908B8007A08B9003908B9
:1005A000BD003808BC003708BB003608BA003D085B
:1005B000C7003C08C6003B08C5003A08C400CB0190
:1005C000C030CA007F30C9008830C8005B2177087E
:1005D000C2007808C3007908C4007A08C500C900C1
:1005E0007908C8007808C7007708C600CD01CC019B
:1005F0007A30CB008730CA0025227A08C1007908FA
:10060000C0007808BF007708BE004108C900400854
:10061000C8003F08C7003E08C600CD01CC0120300D
:10062000CB008230CA0025227A08C5007908C400B0
:100630007808C3007708C2009A227908C3007808B6
:10064000C2007908C5007808C4003E217A08C700B6
:100650007908C6007808C5007708C400CB01CA0134
:100660002030C9008230C8005B217A08C1007908B7
:10067000C0007808BF007708BE003E08F7003F08BA
:10068000F8004008F9004108FA007A08B400790837
:10069000B3007808B2007708B1000034F801F9011E
:1006A000F701FA013B08031D582B3A080319722B76
:1006B0001030BC000310B80DB90DF70DFA0D3B0852
:1006C0007A02031D652B3A087702031C6E2B3A0849
:1006D000F702031CFA033B08FA020314F80DF90DA4
:1006E000BC0B5A2B00342B086A20F800A8002C08F9
:1006F0007820F800A9002D086A20F800AA008A11C5
:100700000A125A2C3708BE003B08BE06BE1F8D2BAE
:1007100003110310B71B0314C02B3708BE003A089F
:10072000BF003608BF0203199B2BBE1FC02B030856
:10073000013A8300C02B3B08BF003708BF020319F2
:10074000A72BBE1FC02B0308013A8300C02B3C0817
:10075000BF003808BF020319B32BBE1FC02B03080C
:10076000013A8300C02B3D08BF003908BF020319BE
:10077000BF2BBE1FC02B0308013A8300C02B031000
:10078000003401308800AA200034840183131F3014
:10079000830583161F149F141F159F1107309C009B
:1007A000FF308312B5008B1683160108C039073855
:1007B0008100C03083128B0483161F1383121F170E
:1007C0009F1783169F1783121F1483161F109F14E1
:1007D0001F159F150030F80083121F08C7397804D1
:1007E0009F001030F700F70BF32B00000730831643
:1007F000850000308800091089100911013083122A
:10080000B600B700B801B3280130B600B701B8018F
:10081000E4280B21B9223408C9003308C800320883
:10082000C7003108C600CD01CC012030CB0082309A
:10083000CA0025227A08C5007908C4007808C300D8
:100840007708C2009A227908B0007808AF00300813
:10085000B9002F08B800BB016430BA004E237808F5
:10086000AB003008B9002F08B800BB010A30BA004D
:100870004E237908B7007808B6007908B9007808DF
:10088000B800BB010A30BA004E237708AC0030082C
:10089000B9002F08B800BB010A30BA004E23770810
:1008A000AD003408B9003308B8003208B700310889
:1008B000B600732B0130B6000A30B700FE2030308E
:1008C0002B078800F52030302C078800F5200130F8
:1008D000B6000D30B700FE2030302D078800F5201F
:1008E000B901B8014830B7008530B6003408BD0002
:1008F0003308BC003208BB003108BA008223031859
:10090000832C031DBF2CC1230130B6000530B70076
:10091000FE20AE012E0833203A3C0319962C2E08F7
:100920003320F8008800F520AE0A8A2C0230B60089
:100930000130B700FE20AE012E084120003A031915
:10094000A82C2E084120F8008800F520AE0A9C2C27
:10095000B901B8014830B7008530B6003408BD0091
:100960003308BC003208BB003108BA0082230318E8
:10097000BB2C031DBD2CB922A82CC1230B210A2C92
:02098000630012
:02400E003A3F37
:00000001FF
;PIC16F877A
