:1000000000308A00332A0000FF00030E8301A100A4
:100010000A08A0008A010408A2007708A300780853
:10002000A4007908A5007A08A6007B08A70083131E
:1000300083128B1E1D280B193028220884002308E8
:10004000F7002408F8002508F9002608FA00270818
:10005000FB0020088A00210E8300FF0E7F0E09009E
:100060008A110A125B280A108A100A118207623468
:1000700061346D3420347034683469346D34203424
:1000800062346134743420346B34693400340A10BF
:100090008A100A1182076434653420346234613472
:1000A000743420346434613475342034433454342B
:1000B000203421340034EC308100013087000030DE
:1000C000071A0130B2000030871A0130F700031020
:1000D000F70D77083207B4000030071B0130F70036
:1000E000F70DF70DFC30F70577083407B600003040
:1000F000871B0130F700F70DF70DF70DF830F70506
:1001000077083607013A03198F28033A0319922812
:10011000063A031995280C3A031998289B280130B0
:10012000A9009C280230A9009C280330A9009C2823
:100130000430A9009C28A901023087000030071A6A
:100140000130B2000030871A0130F7000310F70DBC
:1001500077083207B4000030071B0130F700F70DB5
:10016000F70DFC30F70577083407B6000030871B21
:100170000130F700F70DF70DF70DF830F7057708A8
:100180003607013A0319CE28033A0319D128063A53
:100190000319D4280C3A0319D728DA280530A90006
:1001A000DA280630A900DA280730A900DA28083052
:1001B000A900DA28043087000030071A0130B200A5
:1001C0000030871A0130F7000310F70D7708320767
:1001D000B4000030071B0130F700F70DF70DFC30BD
:1001E000F70577083407B6000030871B0130F700A9
:1001F000F70DF70DF70DF830F70577083607013AD8
:1002000003190C29033A03190F29063A0319122975
:100210000C3A0319152918290930A90018290A30A0
:10022000A90018290B30A90018290C30A900182999
:10023000083087000030071A0130B2000030871AFA
:100240000130F7000310F70D77083207B4000030D3
:10025000071B0130F700F70DF70DFC30F7057708A5
:100260003407B6000030871B0130F700F70DF70D9B
:10027000F70DF830F70577083607013A03194A29D0
:10028000033A03194D29063A031950290C3A031968
:10029000532956290D30A90056290E30A900562998
:1002A0000F30A90056291030A900562987012908C6
:1002B000AA000B118A110A121D2808150000081146
:1002C0005330F700F70B6229003408108810281EFD
:1002D0008811281A8815A81E0812A81A0816281F9F
:1002E0008812281B8816A81F0813A81B08175D2151
:1002F000281C881128188815A81C0812A818081688
:10030000281D881228198816A81D0813A81908176F
:100310005D2100342830B0003030840083130008A1
:1003200003199F290630F800F701F70B9529F80B00
:1003300094297B30F700F70B9B29800B92292D0E17
:10034000F700F030F7057708203EB0002E0DF700DB
:10035000F70DF70DF830F70577083007B1002F0DCE
:10036000F700F70DFC30F70577083107A8000810F3
:100370008810281E8811281A8815A81E0812A81A85
:100380000816281F8812281B8816A81F0813A81BE8
:1003900008170815000008115330F700F70BCE2995
:1003A00065218A110A12592A2D0DF700F70DFC302C
:1003B000F7057708083EB00003102E0D30072F0711
:1003C000A80065218A110A125E2A08148810281EC6
:1003D0008811281A8815A81E0812A81A0816281F9E
:1003E0008812281B8816A81F0813A81B08175D2150
:1003F000281C881128188815A81C0812A818081687
:10040000281D881228198816A81D0813A81908176E
:100410005D2100342E3084008313000803191D2A47
:100420000630F800F701F70B132AF80B122A7B307D
:10043000F700F70B192A800B102A8A110A12662A74
:100440000130A800652100342D0B2B2A01302E022B
:10045000803EA8002F2A01302E02C03EA800652150
:100460008A110A127B2A840183131F3083058316A5
:100470001F149F141F159F1107309C00FF3083121B
:10048000AC008B1683160108C03907388100C030D4
:1004900083128B04F030831687008312AC00003087
:1004A0008316880083128813AD010130AE00AF01BE
:1004B0008A290130AD00AE00AF01D4297E30A800FA
:1004C000E5210830AD00FA30AE000A2AAD0B632AF0
:1004D0002022AB012B083320003A0319762A2B087F
:1004E0003320F800A800E521AB0A6A2A0230AD00EB
:1004F0000130AE00242AAB012B084720003A031933
:10050000882A2B084720F800A800E521AB0A7C2A9E
:10051000AA080319882A202201302A02F03E031873
:10052000102B103E122B2A0B962A932A3730A80044
:10053000E521102B2A08023C03199A2A3830A8001A
:10054000E521102B2A08033C0319A22A3930A80000
:10055000E521102B2A08043C0319AA2AFD30A80023
:10056000E521102B2A08053C0319B22A3430A800D3
:10057000E521102B2A08063C0319BA2A3530A800B9
:10058000E521102B2A08073C0319C22A3630A8009F
:10059000E521102B2A08083C0319CA2A7830A80044
:1005A000E521102B2A08093C0319D22A3130A80072
:1005B000E521102B2A080A3C0319DA2A3230A80058
:1005C000E521102B2A080B3C0319E22A3330A8003E
:1005D000E521102B2A080C3C0319EA2A2D30A8002B
:1005E000E521102B2A080D3C0319F22A2022102B9A
:1005F0002A080E3C0319F82A3030A800E521102BF8
:100600002A080F3C0319002B3D30A800E521102BD0
:100610002A08103C0319082B2B30A800E521102BC9
:100620008C2A63000A148A140A118207932A9A2AD0
:10063000A22AAA2AB22ABA2AC22ACA2AD22ADA2A7A
:0C064000E22AEA2AF22AF82A002B082BF2
:02400E003A3F37
:00000001FF
;PIC16F877A
