:1000000000308A003E2900000A108A100A11820777
:100010002D342D3449345F344C346F3476346534A8
:100020005F3459346F347534203421342D342D34F9
:1000300000340A108A100A1182073D343D345334CB
:100040006C346F3477345F3469346E345F346C34BD
:100050006F34763465343D343D3400340A108A10F0
:100060000A1182076C346F34763465345F34593446
:100070006F3475342C3446346F34723465347634CE
:100080006534723400340A108A100A1182076E3403
:100090006834693465347434203464346F343A34E9
:1000A00000340A108A100A1182076E3468346934E9
:1000B00065347434203464346F34203464346134EF
:1000C0007434203474346F3469342C344D345534E2
:1000D000433420344E344734553459342034483472
:1000E000493445344D342C34443441344E3447344F
:1000F0004534523420342134003409140911891054
:1001000009105330F700F70B832800342830AA0079
:100110002A3084008313000803199B280630F80056
:10012000F701F70B9128F80B90287B30F700F70BBD
:100130009728800B8E28270EF700F030F7057708F8
:10014000203EAA00280DF700F70DF70DF830F7054F
:1001500077082A07AB00290DF700F70DFC30F705EB
:1001600077082B0788007D208A110A125429280D50
:10017000F700F70DFC30F7057708083EAB000310D9
:10018000290D2B072A0788007D20003401308800C4
:100190007D200034270BD12801302802803E8800C2
:1001A000D52801302802C03E88007D200034283048
:1001B0008400831300080319EA280630F800F701C9
:1001C000F70BE028F80BDF287B30F700F70BE62869
:1001D000800BDD28003409140915891009105330EB
:1001E000F700F70BF1280034A701A8012808FA004E
:1001F00027081920003A03190129A70A0319A80A98
:10020000F6282708F8002808F9008A110A128F2911
:10021000A70DA70DA70DF830A70510302707A900D7
:10022000A80DA80DFC30A8052808290788007D2006
:100230000034F801F901F701FA012C08031D232904
:100240002B0803193D291030AD000310A90DAA0D8C
:10025000F70DFA0D2C087A02031D30292B087702BE
:10026000031C39292B08F702031CFA032C08FA0295
:100270000314F80DF90DAD0B252900348401831307
:100280001F30830583161F149F141F159F110730FD
:100290009C00091089100911003088000130831278
:1002A000A700A800A90186280130A800A900AA017A
:1002B000B7200130A800A900AA01B720C62001304C
:1002C000A700A800CA20A50125081920003A031993
:1002D00073296430A800D72025081920F800880069
:1002E000EB20A50A64290230A7000130A800CA202B
:1002F000A50125082E20003A031988296430A8009A
:10030000D72025082E20F8008800EB20A50A79299F
:100310000130A7001130A800CA20A501F4287908EF
:10032000FA007808FA08031D992925087802031CA9
:10033000A629A701A80108218801EB20A701A8018F
:1003400008216430A800D720A50A8E290130A70013
:10035000A800CA20A5012508103C031CB929643057
:10036000A800D72025080420F8008800EB20A50A63
:10037000AB290230A700FA30A800D720A70BBB2971
:10038000C6200130A800A901AA01B720A5012508AF
:10039000093C031CD52925084320F8008800EB20E0
:1003A0005030A800D720A50AC7290130A7000D307A
:1003B000A800CA20DF308800EB2043308800EB2003
:1003C000A101A0012108033C031C332A031DEC29D1
:1003D0002008E73C031C332A2108AA002008A900B2
:1003E000AC016430AB0019217808303EA20021082E
:1003F000AA002008A900AC010A30AB001921790835
:10040000A8007808A7007908AA007808A900AC011C
:100410000A30AB0019217708303EA3002108AA005A
:100420002008A900AC010A30AB0019217708303E42
:10043000A4000130A7000A30A800CA20A5012508A1
:10044000023C031C2F2A2230250784008313000856
:100450008800EB201430A800D720A50A1F2AA00A84
:100460000319A10AE229C620A501250851202C3C28
:100470000319442A25085120F8008800EB20503049
:10048000A800D720A50A352A0230A7000330A8000B
:10049000CA201130A500250851202C3C03195A2AE6
:1004A00025085120F8008800EB205030A800D72004
:1004B000A50A4B2A0630A700FA30A800D720A70BC0
:1004C0005C2AC6200130A7000530A800CA201F30D2
:1004D000A50025085120003A0319782A2508512043
:1004E000F8008800EB205030A800D720A50A692A20
:1004F000A50125080A3C031C902A0130A6060030FD
:1005000026180130A700A800A901AA01B7200230CF
:10051000A700FA30A800D720A70B892AA50A792AB4
:0405200059296300F2
:02400E003A3F37
:00000001FF
;PIC16F877A
