:1000000000308A00D62B0000FF00030E8301A10000
:100010000A08A0008A010408A2007708A300780853
:10002000A4007908A5007A08A6007B08A70083131E
:1000300083128B1E1D280B193028220884002308E8
:10004000F7002408F8002508F9002608FA00270818
:10005000FB0020088A00210E8300FF0E7F0E09009E
:100060008A110A126A280A108A100A1182074E346D
:100070006834693465347434203464346F343A3409
:1000800000340A108A100A11820751345534413461
:1000900020344D34553443342034433448344F34C1
:1000A0002034503448344534503400340A108A1017
:1000B0000A118207533465346E3473346F347234EA
:1000C00020345B342D344C344D34333435342D34BA
:1000D0005D3400348C30810088130B118A110A12B0
:1000E0001D280815000008115330F700F70B76287B
:1000F000003408108810281E8811281A8815A81E98
:100100000812A81A0816281F8812281B8816A81F6C
:100110000813A81B08177120281C88112818881597
:10012000A81C0812A8180816281D88122819881655
:10013000A81D0813A8190817712000342830B6002C
:1001400036308400831300080319B3280630F80002
:10015000F701F70BA928F80BA8287B30F700F70B5D
:10016000AF28800BA628330EF700F030F70577088C
:10017000203EB600340DF700F70DF70DF830F70507
:1001800077083607B700350DF700F70DFC30F70597
:1001900077083707A80008108810281E8811281A29
:1001A0008815A81E0812A81A0816281F8812281BCE
:1001B0008816A81F0813A81B0817081500000811A7
:1001C0005330F700F70BE22879208A110A12102C1D
:1001D000330DF700F70DFC30F7057708083EB60041
:1001E0000310340D36073507A80079208A110A124A
:1001F000152C08148810281E8811281A8815A81E86
:100200000812A81A0816281F8812281B8816A81F6B
:100210000813A81B08177120281C88112818881596
:10022000A81C0812A8180816281D88122819881654
:10023000A81D0813A819081771200034330B2529AD
:1002400001303402803EA800292901303402C03E2A
:10025000A80079200034AC012C083320003A03199F
:1002600038292C083320F800A800F920AC0A2C29E2
:100270000130B3000C30B4001E212E30A800F9204C
:100280000130B3000E30B4001E21DF30A800F92089
:100290004330A800F9200230B3000130B4001E2121
:1002A000AC012C085620003A03195D292C08562071
:1002B000F800A800F920AC0A512900348E30F7006C
:1002C0004208F8004108F900FA01F808031D7229F4
:1002D0007908F800F9010830F702F808031D7229BF
:1002E000F7017A290310F81B7929F90DF80DF703A6
:1002F0007229F813003441080319402ACD0045083B
:100300000319402ACD02031C8A297F30CD07031828
:10031000402A90298130CD02031C402A0319402A2B
:100320004D08F700F801F901FA01CC014208CB00B1
:10033000CB174308CA004408C9001930CD0048084B
:10034000C9020318B3290130CA020318B329CB022A
:100350000318B329CC020318B329CC0ACB0ACA0A62
:100360004808C907E5294708CA020318CE29013001
:10037000CB020318CE29CC020318CE29CC0ACB0A13
:100380004708CA074808C907031CE529CA0A031D0C
:10039000E529CB0A031DE529CC0AE5294608803862
:1003A000CB020318E4290130CC020318E429CC0A5B
:1003B00046088038CB074708CA07031CC229CB0A66
:1003C000031DC229CC0AC2297A14CD0BE829F329CE
:1003D0000310C90DCA0DCB0DCC0D0310FA0DF90D8C
:1003E000F80DCE0D9F294E1CFB290310F80CF90CBB
:1003F000FA0CCE0CFE29F7030319402ACE1B272A3C
:100400000310C90DCA0DCB0DCC0D4808C902031845
:10041000132A0130CA020318132ACB020318132A25
:10042000CC02031C362A4708CA0203181E2A0130D0
:10043000CB0203181E2ACC02031C362A4608803839
:10044000CB020318272A0130CC02031C362AFA0AF1
:10045000031D362AF90A031D362AF80A031D362A17
:10046000F70A0319402AF80CF90CFA0C4208CD00DF
:100470004608CD06CD1F3E2AF817442AF813442A11
:10048000F701F801F901FA01003443080319B52A0C
:10049000CB0047080319B52ACB070318562A7F302B
:1004A000CB02031CB52A0319B52A5A2A8130CB077F
:1004B0000318B52A4B08F700F801F901FA014408BE
:1004C000CF00CF174508CE004608CD001830CB002E
:1004D000CC014D1C832A4A08FA07031C752AF90A25
:1004E000031D752AF80A0319CC174908F907031CDC
:1004F0007C2AF80A0319CC174808C500C517450817
:10050000F8070318CC17CC0DF80CF90CFA0CCF0C2B
:10051000CE0CCD0C0310CB0B682A0130F707031863
:10052000B52AF81B9A2ACF0DFA0DF90DF80DF7032D
:100530000319B52ACF1FAB2AFA0A031DAB2AF90A01
:10054000031DAB2AF80A031DAB2AF80CF90CFA0CB0
:10055000F70A0319B52A4408CC004808CC06CC1F7A
:10056000B32AF817B92AF813B92AF701F801F901E3
:10057000FA0100348E30F7003F08F7024008F90016
:100580004108F800F917F7080319D12A0310F908F0
:10059000031DCD2AF8080319D12AF90CF80CF70B22
:1005A000C62AC01FD82AF809F909F80A0319F90A56
:1005B00000341F151F19DA2A1F19DC2A1E08FA0039
:1005C00083161E088312C1007A08C2005E217708D4
:1005D000B3007808B4007908B5007A08B600360888
:1005E000BA003508B9003408B8003308B7003A0833
:1005F000C4003908C3003808C2003708C100C80168
:10060000C030C7007F30C6008830C5007B21770826
:10061000BF007808C0007908C1007A08C200C6008F
:100620007908C5007808C4007708C300CA01C90169
:100630007A30C8008730C70045227A08BE007908A2
:10064000BD007808BC007708BB003E08C6003D0826
:10065000C5003C08C4003B08C300CA01C9012030E2
:10066000C8008230C70045227A08C2007908C1005C
:100670007808C0007708BF00BA227908C00078085F
:10068000BF007908C2007808C1005E217A08C40062
:100690007908C3007808C2007708C100C801C70103
:1006A0002030C6008230C5007B217A08BE00790860
:1006B000BD007808BC007708BB003B08F7003C0889
:1006C000F8003D08F9003E08FA007A08B2007908FF
:1006D000B1007808B0007708AF000034F801F901E4
:1006E000F701FA013808031D782B37080319922BFC
:1006F0001030B9000310B50DB60DF70DFA0D38081E
:100700007A02031D852B37087702031C8E2B3708CE
:10071000F702031CFA033808FA020314F80DF90D66
:10072000B90B7A2B00343408BB003808BB06BB1F5A
:100730009E2B03110310B41B0314D12B3408BB00F0
:100740003708BC003308BC020319AC2BBB1FD12BEC
:100750000308013A8300D12B3808BC003408BC02DE
:100760000319B82BBB1FD12B0308013A8300D12BEF
:100770003908BC003508BC020319C42BBB1FD12BA0
:100780000308013A8300D12B3A08BC003608BC02AA
:100790000319D02BBB1FD12B0308013A8300D12BA7
:1007A000031000340130A800792000348401831341
:1007B0001F30830583161F149F141F159F110730C8
:1007C0009C0083128B1683160108C03907388100FC
:1007D000C03083128B0483161F1383121F179F17B9
:1007E00083169F1783121F1483161F109F141F1543
:1007F0009F150030F80083121F08C73978049F0046
:100800001030F700F70B022C000001308316850032
:10081000003088008312B3010130B400B5019E2876
:100820000130B300B401B501E8282B21D9223208E8
:10083000C6003108C5003008C4002F08C300CA0133
:10084000C9012030C8008230C70045227A08C200A2
:100850007908C1007808C0007708BF00BA2279087B
:10086000AE007808AD002E08B6002D08B500B8011E
:100870006430B7006E237808A9002E08B6002D0852
:10088000B500B8010A30B7006E237908B4007808C3
:10089000B3007908B6007808B500B8010A30B7008F
:1008A0006E237708AA002E08B6002D08B500B801FF
:1008B0000A30B7006E237708AB000130B3000A306E
:1008C000B4001E2130302907A800F92030302A0753
:1008D000A800F9200130B3000D30B4001E213030E3
:1008E0002B07A800F920B601B5014830B4008530C7
:1008F000B3003208BA003108B9003008B8002F0838
:10090000B70093230318862C031DC22CD223013079
:10091000B3000530B4001E21AC012C0833203A3C52
:100920000319992C2C083320F800A800F920AC0AF0
:100930008D2C0230B3000130B4001E21AC012C0814
:100940004120003A0319AB2C2C084120F800A800E4
:10095000F920AC0A9F2CB601B5014830B4008530AF
:10096000B3003208BA003108B9003008B8002F08C7
:10097000B70093230318BE2C031DC02CD922AB2C27
:08098000D2232B21162C630089
:02400E003A3F37
:00000001FF
;PIC16F877A
