:1000000000308A00A5290000FF00030E8301A10033
:100010000A08A0008A010408A2007708A300780853
:10002000A4007908A5007A08A6007B08A70083131E
:1000300083128C308400801C1F288C1832282208E0
:1000400084002308F7002408F8002508F900260892
:10005000FA002708FB0020088A00210E8300FF0E0B
:100060007F0E09008A110A123C290A108A100A110F
:100070003C3E03188A0A820000346634E734E734D1
:10008000E734E734663400343F343F343F343F34A0
:100090003F343F343B340334FF34993466347E3488
:1000A000BD34DB34E734FF341834BD34BD34BD34E3
:1000B000BD34BD34DB34E73401343D3437340734E8
:1000C000073437343D3401341834BD34DB34E7347D
:1000D000EF34DF343F34FF34C73439343934393402
:1000E000393439343934C7341834BD34BD34BD34AF
:1000F000BD34BD34BD34C334003400340034003466
:10010000003400340034003400340034003400344F
:10011000003400340034003400340034003400343F
:10012000003400340034003400340034003400342F
:10013000003400340034003400340034003400341F
:10014000003400340034003400340034003400340F
:1001500000340034003400340034003400340034FF
:1001600000340034003400340034003400340034EF
:1001700000340034003400340034003400340034DF
:1001800000340034003400340034003400340034CF
:1001900000340034003400340034003400340034BF
:1001A00000340034003400340034003400340034AF
:1001B000003400340034003400340034003400349F
:1001C000003400340034003400340034003400348F
:1001D000003400340034003400340034003400347F
:1001E000003400340034003400340034003400346F
:1001F000003400340034003400340034003400345F
:10020000003400340034003400340034003400344E
:10021000003400340034003400340034003400343E
:10022000003400340034003400340034003400342E
:10023000003400340034003400340034003400341E
:10024000003400340034003400340034003400340E
:1002500000340034003400340034003400340034FE
:1002600000340034003400340034003400340034EE
:100270000034003400340034290DB000B101B10D58
:10028000B00DB10DB00DB10DF830B0052808300734
:10029000F8003108FA000318FA0A78083520F70048
:1002A0002A08F800031958290310F70DF80B5429F0
:1002B00077082B04AD00FF30880001308700280844
:1002C000F800031967290310870DF80B6329070845
:1002D0008600290DB000B101B10DB00DB10DB00D0A
:1002E000B10DF830B00528083007F8003108FA00E1
:1002F0000318FA0A78083520F7002A08F8000319CD
:1003000085290310F70DF80B812977082B04880045
:10031000A80A2808083C0319A8018C108A110A129F
:100320001F282F308400831300080319A4290630E6
:10033000F800F701F70B9A29F80B99297B30F700A1
:10034000F70BA029800B97290034840183131F30F9
:10035000830583161F149F141F159F1107309C00DF
:10036000FF308312AC00AD01003083168600870099
:100370008312AC0083168800831287010708860069
:100380000430AE00FA30AF009121AE0BC2298316C3
:100390008C140030F800053883129200FF30831669
:1003A0009200C03083128B04A901C830AF009121A4
:1003B000AA0A01302A02F83E0318F829083E062A44
:1003C0000130AB00F8290330AB00F8290730AB004F
:1003D000F8290F30AB00F8291F30AB00F8293F3067
:1003E000AB00F8297F30AB00F829FF30AB00F829CB
:1003F0002A08083C031D042AAA012A08AB00A90AFE
:100400002908073C031CA901D52963000A108A1496
:100410000A118207E029E329E629E929EC29EF29D5
:04042000F229F5299F
:02400E003A3F37
:00000001FF
;PIC16F877A
