:1000000000308A00282A0000FF00030E8301A100AF
:100010000A08A0008A010408A2007708A300780853
:10002000A4007908A5007A08A6007B08A70083131E
:1000300083128B1E1D280B193028220884002308E8
:10004000F7002408F8002508F9002608FA00270818
:10005000FB0020088A00210E8300FF0E7F0E09009E
:100060008A110A1265290A108A100A113A3E0318E9
:100070008A0A820000346634E734E734E734E73430
:10008000663400343F343F343F343F343F343F34F0
:100090003B340334FF34993466347E34BD34DB346E
:1000A000E734FF343C343C343C343C349934C3347E
:1000B000C334E73401343D3437340734073437343C
:1000C0003D3401341834BD34DB34E734EF34DF34ED
:1000D0003F34FF34C734393439343934393439345E
:1000E0003934C7341834BD34BD34BD34BD34BD34A7
:1000F000BD34C334003400340034003400340034E0
:10010000003400340034003400340034003400344F
:10011000003400340034003400340034003400343F
:10012000003400340034003400340034003400342F
:10013000003400340034003400340034003400341F
:10014000003400340034003400340034003400340F
:1001500000340034003400340034003400340034FF
:1001600000340034003400340034003400340034EF
:1001700000340034003400340034003400340034DF
:1001800000340034003400340034003400340034CF
:1001900000340034003400340034003400340034BF
:1001A00000340034003400340034003400340034AF
:1001B000003400340034003400340034003400349F
:1001C000003400340034003400340034003400348F
:1001D000003400340034003400340034003400347F
:1001E000003400340034003400340034003400346F
:1001F000003400340034003400340034003400345F
:10020000003400340034003400340034003400344E
:10021000003400340034003400340034003400343E
:10022000003400340034003400340034003400342E
:10023000003400340034003400340034003400341E
:10024000003400340034003400340034003400340E
:1002500000340034003400340034003400340034FE
:1002600000340034003400340034003400340034EE
:10027000003400342C08F83E03185629083E59294A
:10028000A9015629A90156290130A9005629013092
:10029000A90056290130A90056290130A900562984
:1002A0000230A90056290230A90056298A110A12E3
:1002B00072290A148A100A11820740294229442906
:1002C00047294A294D2950295329F6308100AD0A82
:1002D0000319AE0A2D080A3C031D102AAE08031D9F
:1002E000102A3A290030AF00831687018312870154
:1002F00083168601FF3083128600831688018312DD
:100300008800290803198B29013A0319A529033A02
:100310000319DB29F5292B0DB200B301B30DB20D82
:10032000B30DB20DB30DF830B2052C083207F8004A
:100330003308FA000318FA0A78083320B400831649
:100340008801831234088800F5292818C1292B0D4B
:10035000B200B301B30DB20DB30DB20DB30DF83051
:10036000B2052C083207F8003308FA000318FA0A1D
:1003700078083320B400831688018312340888007B
:10038000DA292B0DB200B301B30DB20DB30DB20DCE
:10039000B30DF830B2052C083207F8003308FA0024
:1003A0000318FA0A78083320B400831686018312F2
:1003B00034088600F5292B0DB200B301B30DB20D40
:1003C000B30DB20DB30DF830B2052C083207F800AA
:1003D0003308FA000318FA0A78083320B4008316A9
:1003E0008601831234088600F5292A08B2002C08F9
:1003F000F8000319FF290310B20DF80BFB29003098
:10040000AF0083168701831232088700AC0A2C08DC
:10041000083C031D0E2AAC010130A806AE01AD0157
:100420000B118A110A121D28313084008313000831
:100430000319272A0630F800F701F70B1D2AF80BDD
:100440001C2A7B30F700F70B232A800B1A2A003472
:10045000840183131F30830583161F149F141F15F7
:100460009F1107309C0083122810AC01FF30AF00B1
:100470008316860183128601831688018312880100
:100480000030AF0083168701831287011430B0005B
:10049000FA30B1001422B00B482A8B1683160108DB
:1004A000C03901388100C03083128B04AB010130A8
:1004B000AA000230B000AF30B1001422B00B5B2AAA
:1004C000AA080319692A0310AA0D4630B1001422A4
:1004D000602AAB0A2B08083C0319AB01572A6300BA
:02400E003A3F37
:00000001FF
;PIC16F877A
