:1000000000308A0071280000233084008313000828
:10001000031918280730F800F701F70B0D28F80B23
:100020000C28C730F700F70B13280000800B0A28B4
:1000300000340230A402031C2828243084008313D7
:10004000000803192828262825280000800B2428CA
:100050000034A2012108220203185028071420109E
:1000600020088316870003308312A3000420023087
:10007000A300D430A4001920A30B392807102010A6
:1000800020088316870003308312A3000420023067
:10009000A300D430A4001920A30B4928A20A2A28BF
:1000A0000034A2012108220203187028071420102E
:1000B00020088316870001308312A30004208830B3
:1000C000A400192007102010200883168700013093
:1000D0008312A30004208830A4001920A20A522809
:1000E0000034840183131F30830583161F149F146B
:1000F0001F159F1107309C00FF308312A000A01134
:10010000200883168700831287113230A10029202E
:100110006430A3000420A10129200530A30004209D
:100120003230A10029206430A3000420A10129203D
:100130000530A30004203230A10051206430A30018
:100140000420A10151200230A1009630A300042018
:10015000A10BA5283230A10051203230A300042089
:10016000A10151200530A30004203230A10051200C
:100170003230A3000420A10151200530A300042047
:100180003230A10029206430A3000420A1012920DD
:100190000530A30004203230A10029206430A300E0
:1001A0000420A10129200530A30004203230A10041
:1001B0005120C830A3000420A10151200230A10029
:1001C0009630A3000420A10BE02885286300FF3FA0
:08400000FF3FFF3FFF3FFF3FC0
:02400E003A3F37
:00000001FF