:1000000000308A0027280000233084008313000872
:10001000031917280630F800F701F70B0D28F80B25
:100020000C287B30F700F70B1328800B0A280034CC
:100030000330A302031C2628233084008313000806
:100040000319262824282428800B2328003484011F
:1000500083131F30830583161F149F141F159F11D0
:1000600007309C00FF308312A000F9308316870010
:100070008312A0000030A00083168701831287013D
:1000800083168601831286017830F80006389200C4
:10009000FF308316920083122011200883168700F8
:1000A000831207110C309700A010200883168700D8
:1000B000831287100C309D002108FF3C0319702823
:1000C000A10A2108950021089B000230A30004200A
:1000D0000230A200F930A3001820A20B6A285C2885
:1000E0000230A200FA30A3000420A20B7228A1085B
:1000F00003198A28A1032108950021089B000230DA
:10010000A30004200230A200F930A3001820A20BA3
:08011000842877285C286300B5
:02400E003A3F37
:00000001FF
;PIC16F877A
