:1000000000308A004F280000FF00030E8301A1008A
:100010000A08A0008A010408A2007708A300780853
:10002000A4007908A5007A08A6007B08A70083131E
:1000300083128B1E1D280B193028220884002308E8
:10004000F7002408F8002508F9002608FA00270818
:10005000FB0020088A00210E8300FF0E7F0E09009E
:100060008A110A1233286A308100A90A0319AA0AE0
:100070002908103C031D4B282A08273C031D4B2848
:100080000310A80D0030AB008316870183122808E7
:100090008700AA01A9010B118A110A121D288401E7
:1000A00083131F30830583161F149F141F159F1180
:1000B00007309C0001308312A800FF30AB008B1684
:1000C00083160108C03901388100C03083128B04C7
:0400D0006828630039
:02400E003A3F37
:00000001FF
;PIC16F877A
