:1000000000308A0036290000FF00030E8301A100A2
:100010000A08A0008A010408A2007708A300780853
:10002000A4007908A5007A08A6007B08A70083131E
:1000300083120B1E1D288B183028220884002308E9
:10004000F7002408F8002508F9002608FA00270818
:10005000FB0020088A00210E8300FF0E7F0E09009E
:100060008A110A123328A80A2808033C0319A80198
:100070008B108A110A121D282B308400831300086C
:1000800003194F280630F800F701F70B4528F80B45
:1000900044287B30F700F70B4B28800B42280034B4
:1000A0000130A90029087F3C031C61280310A90D19
:1000B000831688018312290888006430AB003C2035
:1000C00052280330A90029087F3C031C7228031022
:1000D000A90D831688018312290888006430AB00BB
:1000E0003C20632883168801013083128800643025
:1000F000AB003C20831688010330831288006430F3
:10010000AB003C20831688010730831288006430DE
:10011000AB003C200730A90029087F3C031C9B282A
:100120000310A90D83168801831229088800643002
:10013000AB003C208C288316880180308312880015
:100140006430AB003C2083168801C03083128800E5
:100150006430AB003C208316880170308312880025
:100160006430AB003C208A110A1254290130A900E6
:10017000290FBB28C8280310290D013EA9008316AA
:1001800088018312290888006430AB003C20B8281D
:10019000FF30A9002908013C0318DD28013029029D
:1001A000F7000310770CA900831688018312290831
:1001B00088006430AB003C20CA28831688010130D7
:1001C000831288000330AA00C830AB003C20AA0B81
:1001D000E4280130A9002908543C031C0429290DF6
:1001E000F700F70DFC30F7057708013EA9008316EC
:1001F00088018312290888000330AA00C830AB00A8
:100200003C20AA0BFE28EB280130A9002908143C49
:10021000031C1C2983168801AA30831288006430CD
:10022000AB003C208316880155308312880064306F
:10023000AB003C20A90A06290130A9002908143C7A
:10024000031C332983168801FF30831288003C3059
:10025000AB003C2083168801831288016E30AB000E
:100260003C20A90A1E298A110A12542984018313E9
:100270001F30830583161F149F141F159F1107300D
:100280009C0083120B16C0308B04831601130130BF
:100290008312A8002808013A03195229033A0319C6
:0C02A000532954295028B6284A2963002D
:02400E003A3F37
:00000001FF
;PIC16F877A
