:1000000008308A00962C0000FF00030E8301A10037
:100010000A08A0008A010408A2007708A300780853
:10002000A4007908A5007A08A6007B08A70083131E
:1000300083128C308400801C1F288C1846288B1E4D
:1000400023280B1949280B1E27288B1840288C3091
:100050008400001C2D280C18432822088400230843
:10006000F7002408F8002508F9002608FA002708F8
:10007000FB0020088A00210E8300FF0E7F0E09007E
:100080008A110A12682A8A110A12892A8A110A1206
:100090008D2A8A110A126C2A0A108A100A11533EFC
:1000A00003188A0A82004D3465347434653472341E
:1000B000203431340034283453344D34533429340B
:1000C000203432340034543469346D34653472343D
:1000D000203433340034433461346C34633420349A
:1000E0002034343400345334413447345F3444349E
:1000F0004F344E340034433444344D34533420347C
:100100002034363400344F34463444344D342034B3
:1001100020343734003446345034473441342034AA
:100120002034383400342834503443344D342934A6
:100130002034393400342834503457344D34293481
:100140003134303400342834503441344D3429347F
:10015000313431340034283450344F345734293456
:100160003134323400346D3465346E3475342034B7
:100170003134333400346D3465346E3475342034A6
:100180003134343400346D3465346E347534203495
:100190003134353400346D3465346E347534203484
:1001A0003134363400346D3465346E347534203473
:1001B0003134373400346D3465346E347534203462
:1001C0003134383400346D3465346E347534203451
:1001D0003134393400346D3465346E347534203440
:1001E0003234303400346D3465346E347534203438
:1001F0003234313400346D3465346E347534203427
:100200003234323400346D3465346E347534203415
:100210003234333400346D3465346E347534203404
:100220003234343400346D3465346E3475342034F3
:100230003234353400346D3465346E3475342034E2
:100240003234363400346D3465346E3475342034D1
:100250003234373400346D3465346E3475342034C0
:100260003234383400346F347034743431342034E0
:100270003234393400346F347034743432342034CE
:100280003334303400346F347034413453344B34AD
:100290003334313400346F34703448344F344D3497
:1002A0003334323400340A148A100A11820720349D
:1002B00020345934453453342034313420342034FC
:1002C0004E344F34203432342034203400340A1475
:1002D0008A100A118207423441344E34203451349A
:1002E0005534593445344E3420345334503420344A
:1002F00043345534413400340A148A100A118207F9
:1003000053346C346F3477346C346F3476346534F2
:100310002D342834323439342F34303436342934BF
:1003200000340A148A100A11820743346F342034CF
:100330006D3475346F346E34203463346834613412
:1003400079342034433454343F3400340A148A104E
:100350000A11820743346F346D3470346C34653461
:10036000743465342034213400340A148A100A119C
:10037000820747344F3420342234423445344734E2
:1003800049344E345F345034413447344534223498
:1003900020343F3400340A148A100A118207503482
:1003A00072346F3463346534733473342E342E34C2
:1003B0002E3400340A148A100A1182074C346F3428
:1003C000763465345F3459346F3475345F34463471
:1003D0006F347234653476346534723400340A1400
:1003E0008A100A11F63E03188A0A820053346C34CC
:1003F0006F3477346C346F34763465345F3457340B
:1004000069346E346E3465347234213400340A1029
:100410008A140A1182072D342D34323439342F34A2
:10042000303436342F3432343034303438342D34A0
:100430002D3400340A108A140A11820743344834D8
:1004400055344F344E3447342034543452344934C4
:100450004E34483420344C344534443400340A108B
:100460008A140A1182072234533441344E344734FB
:10047000203444344F344E34223400340A108A1469
:100480000A11820741346C346C3477346134793426
:100490002034413473346B34203450346C34613440
:1004A00079343F3400340A108A140A118207413427
:1004B0006C346C347734613479342034413473349F
:1004C0006B3447346F3448346F346D3465340034E2
:1004D0008B108A110A122D28B20A32080A3C031D19
:1004E000852A3108B10AF8000330CB00F808031957
:1004F0007D2A0310CB0DF80B792A83168501831210
:100500004B088500B119B101B2010B118A110A1211
:100510002D280C108A110A122D2801308700003076
:10052000071A0130CB000030871A0130F7000310A2
:10053000F70D77084B07CD000030071B0130F7009F
:10054000F70DF70DFC30F70577084D07CF000030A9
:10055000871B0130F700F70DF70DF70DF830F705A1
:1005600077084F07013A0319BF2A033A0319C22A31
:10057000063A0319C52A0C3A0319C82ACB2A0C30AB
:10058000AC00CD2A0D30AC00CD2A0E30AC00CD2A07
:100590000F30AC00CD2A1030AC00023087000030A4
:1005A000071A0130CB000030871A0130F700031022
:1005B000F70D77084B07CD000030071B0130F7001F
:1005C000F70DF70DFC30F70577084D07CF00003029
:1005D000871B0130F700F70DF70DF70DF830F70521
:1005E00077084F07013A0319FF2A033A0319022B30
:1005F000063A0319052B0C3A0319082B0B2B08306C
:10060000AC000B2B0930AC000B2B0A30AC000B2BD1
:100610000B30AC000B2B043087000030071A013080
:10062000CB000030871A0130F7000310F70D770870
:100630004B07CD000030071B0130F700F70DF70D19
:10064000FC30F70577084D07CF000030871B0130DD
:10065000F700F70DF70DF70DF830F70577084F079E
:10066000013A03193D2B033A0319402B063A0319AB
:10067000432B0C3A0319462B492B0430AC00492B71
:100680000530AC00492B0630AC00492B0730AC00DC
:10069000492B083087000030071A0130CB000030AA
:1006A000871A0130F7000310F70D77084B07CD00CC
:1006B0000030071B0130F700F70DF70DFC30F70590
:1006C00077084D07CF000030871B0130F700F70D8A
:1006D000F70DF70DF830F70577084F07013A0319C2
:1006E0007B2B033A03197D2B063A0319802B0C3A16
:1006F0000319832B862BAC01862B0130AC00862B93
:100700000230AC00862B0330AC00862B87018C10A6
:100710008A110A122D28413084008313000803191E
:100720009E2B0630F800F701F70B942BF80B932B58
:100730007B30F700F70B9A2B800B912B003478302D
:100740008316880083128814081008110815000009
:100750000030081B0130F700C5017718C5170030BD
:10076000881A0130F700F70EF70DF70DC030F705C6
:1007700077084504C7000030081A0130F700F70E6B
:10078000F70DE030F70577084704C90000308819F5
:100790000130F700F70EF030F70577084904C20082
:1007A00008110815D32BD42B00000030081B013092
:1007B000F700770DC500C50DC50DF830C505003033
:1007C000881A0130F700F70DF70DFC30F7057708B0
:1007D0004504C7000030081A0130F7000310F70D78
:1007E00077084704C9000030881901304904C30064
:1007F0008810003083168800831242084304F800F2
:1008000000349F237808C200C21B012C281E8811C7
:10081000281A8815A81E0812A81A0816281F881258
:10082000281B8816A81F0813A81B08170000081506
:100830000811281C881128188815A81C0812A81847
:100840000816281D881228198816A81D0813A8192B
:1008500008170815081100342830C1008B23081030
:100860008810081388120816881108150811360D0B
:10087000F700F70DF70DF830F70577082038B800C6
:10088000370DF700F70DFC30F70577083804A8009E
:1008900001248A150A12D22C3A0DF700F70DFC300C
:1008A000F70577080838BD0003103B0D3D043C04F4
:1008B000A800012400349F237808C000C01B5B2CD3
:1008C0000814281E8811281A8815A81E0812A81AAC
:1008D0000816281F8812281B8816A81F0813A81B93
:1008E0000817000008150811281C881128188815F9
:1008F000A81C0812A8180816281D8812281988167E
:10090000A81D0813A81908170000081508110034BD
:10091000400B8F2C013041028038A800932C01300D
:100920004102C038A80001240034A9012908672128
:10093000003A0319A22C29086721F800A8005B24BB
:10094000A90A962C0230C0000130C1008824A901F8
:1009500029087C21003A0319B42C29087C21F800CD
:10096000A8005B24A90AA82C0430B600C830C10036
:100970008B23B60BB62C8A150A12DC2C0130A8008A
:1009800001240034360DAA00AA0DFC30AA0501305E
:10099000C0000230C1008824A9012A0DB700B801A7
:1009A000B80DB70DB80DB70DB80DF830B70529085B
:1009B0003707F8003808FA000318FA0A78084C20BC
:1009C000003A0319FB2C2A0DB700B801B80DB70D7A
:1009D000B80DB70DB80DF830B70529083707F8007E
:1009E0003808FA000318FA0A78084C20F800A80022
:1009F0005B24A90ACD2C0130C0000A30C100882434
:100A0000A90101302A07F900790DB800B901B90D23
:100A1000B80DB90DB80DB90DF830B805290838076B
:100A2000F8003908FA000318FA0A78084C20003A4E
:100A30000319352D01302A07F900790DB800B901E5
:100A4000B90DB80DB90DB80DB90DF830B8052908B4
:100A50003807F8003908FA000318FA0A78084C2019
:100A6000F800A8005B24A90A012D0230C000C100D3
:100A70008824A90102302A07F900790DB800B901CC
:100A8000B90DB80DB90DB80DB90DF830B805290874
:100A90003807F8003908FA000318FA0A78084C20D9
:100AA000003A03196E2D02302A07F900790DB800BB
:100AB000B901B90DB80DB90DB80DB90DF830B805BB
:100AC00029083807F8003908FA000318FA0A7808E4
:100AD0004C20F800A8005B24A90A3A2D0230C0007F
:100AE0000A30C1008824A90103302A07F900790DD2
:100AF000B800B901B90DB80DB90DB80DB90DF83080
:100B0000B80529083807F8003908FA000318FA0A66
:100B100078084C20003A0319A82D03302A07F90061
:100B2000790DB800B901B90DB80DB90DB80DB90DF1
:100B3000F830B80529083807F8003908FA00031812
:100B4000FA0A78084C20F800A8005B24A90A742D42
:100B50008A150A12E72C3908C0003A08C100882417
:100B60007E30A8005B241430C1008B233908C000FC
:100B70003A08C10088242030A8005B241430C1004A
:100B80008B230034BE24A90129089121003A0319BE
:100B9000D02D29089121F800A8005B24A90AC42DB2
:100BA0000230C0000130C1008824A9012908532166
:100BB000003A0319E22D29085321F800A8005B240C
:100BC000A90AD62D8A150A12742DFF30A8005B24BD
:100BD00000340830F8000430F700F70BED2D8910D1
:100BE000831689100330F700F70BF42D8312BD0D27
:100BF0000910031CFE2D8316091483120318032EFB
:100C0000831609108312831689148312891C062EF9
:100C1000F80BEB2D0430F700F70B0C2E8910831620
:100C20008910000009140330F700F70B152E03306C
:100C3000F700F70B192E89148312891C1D2EF80159
:100C40000330F700F70B222E091878148910831649
:100C50008910831209108316091083120034831639
:100C600009140430F700F70B332E89140330F70012
:100C7000F70B382E83120910831609100430F70081
:100C8000F70B402E8312891083168910A03083122F
:100C9000BD00E92578083B1078183B14831609102D
:100CA000000089148312891C532E0430F700F70BBF
:100CB000572E5A2E0000831609140430F700F70B44
:100CC0005F2E003083123B1C0130F8000034BE243C
:100CD0000130C0000430C1008824A9012908A621E0
:100CE000003A03197A2E2908A621F800A8005B24EF
:100CF000A90A6E2EC830C1008B238A150A12F62D60
:100D0000BE24A9012908B521003A03198E2E29080D
:100D1000B521F800A8005B24A90A822E0230C00089
:100D20000130C1008824A90129085321003A031980
:100D3000A02E29085321F800A8005B24A90A942EAC
:060D40008A150A120C2EB8
:1010000001303602E03E03186F2C203E722C8A110C
:10101000BE248A15A90129088A11CB218A15003A14
:1010200003191D2829088A11CB218A15F800A80068
:101030008A115B248A15A90A0B280230C0000130EE
:10104000C1008A1188248A15A901291A31288A1118
:10105000E5258A156430C1008A118B238A15A90AF7
:1010600025286F2C8A11BE248A15A90129088A1106
:10107000DA218A15003A0319482829088A11DA2149
:101080008A15F800A8008A115B248A15A90A362857
:101090000230C0000130C1008A1188248A15A901DC
:1010A000291A5C288A11E5258A156430C1008A1145
:1010B0008B238A15A90A50286F2C8A11BE248A1501
:1010C000A90129088A11EF218A15003A031973280A
:1010D00029088A11EF218A15F800A8008A115B24DB
:1010E0008A15A90A61280230C0000130C1008A11A6
:1010F00088248A15A901291A87288A11E5258A15C5
:101100006430C1008A118B238A15A90A7B286F2CB1
:101110008A11BE248A15A90129088A1107228A1575
:10112000003A03199E2829088A1107228A15F80017
:10113000A8008A115B248A15A90A8C280230C000F5
:101140000130C1008A1188248A15A901291AB22800
:101150008A11E5258A156430C1008A118B238A150E
:10116000A90AA6286F2CB9018A11BE248A1501305C
:10117000BA00BB00BC018A114C248A150130C000A2
:10118000C1008A1188248A15B70137088A111A22EA
:101190008A15003A0319DC2837088A111A228A15A1
:1011A000F800A8008A115B248A153230C1008A1128
:1011B0008B238A15B70AC5280230C0000430C1004D
:1011C0008A1188248A15B70137088A112F228A15B7
:1011D000003A0319FB2837088A112F228A15F800D4
:1011E000A8008A115B248A153230C1008A118B2332
:1011F0008A15B70AE428B7013708043C031C2129E3
:10120000BA01BB01BC018A114C248A150230BA0014
:101210009630C1008A118B238A15BA0B0829013038
:10122000BA00BB01BC018A114C248A150230BA00F5
:101230009630C1008A118B238A15BA0B1829B70A78
:10124000FC280030831686008312B7013708073C5C
:10125000031C5629B8013708073C38020319322904
:10126000031846290130F7003808F80003193C2913
:101270000310F70DF80B3829770839078600C830B6
:10128000C1008A118B238A15B80A2B293708073C1D
:10129000F8000130F700F808031952290310F70D80
:1012A000F80B4E297708B907B70A26296F2C6F2C3F
:1012B0006F2C6F2C0930B800B900BA00BB00BC001D
:1012C000BD00BE00BF00B7013708073C031C8529DD
:1012D000C0013708C10028084038C200400DF7009F
:1012E000F70DF70DF830F70577084204A8008A11CA
:1012F00001248A1538303707840083130008A800BA
:101300008A115B248A15B70A64298A11BE248A15BA
:101310000130C000C1008A1188248A15A8018A11F1
:101320005B248A150430C000FA30C1008A118B2377
:101330008A15C00B94296F2C831689140914643004
:101340008312C1008A118B238A15B901B801AA3012
:10135000BA008A112F268A15F8080319A9298316BD
:1013600009140430F700F70BB32989140330F70090
:10137000F70BB82983120910831609100430F700FF
:10138000F70BC02983128910831689108312390C38
:10139000FA00380CF900FA0CF90CFA0CF90CFA0CFA
:1013A000F90CFA0CF90CFA0CF90CFA0CF90C0130E6
:1013B000FA057908A038FE39BC00BD008A11E9257C
:1013C0008A153808BD008A11E9258A153A08BD003A
:1013D0008A11E9258A1583160910000089148312E1
:1013E000891CF0290430F700F70BF429F7290000D5
:1013F000831609140430F700F70BFC2964308312BC
:10140000C1008A118B238A15B901B8018A112F26D0
:101410008A15F8080319062A831609140430F70000
:10142000F70B102A89140330F700F70B152A8312E3
:101430000910831609100430F700F70B1D2A8312D8
:101440008910831689108312390CFA00380CF900C0
:10145000FA0CF90CFA0CF90CFA0CF90CFA0CF90C60
:10146000FA0CF90CFA0CF90C0130FA057908A038DD
:10147000FE39BC00BD008A11E9258A153808BD0077
:101480008A11E9258A15831609140430F700F70B31
:10149000472A89140330F700F70B4C2A8312891C62
:1014A0004F2A0910831609100430F700F70B562A4B
:1014B00083128910831689108312390CFA00380CB4
:1014C000F900FA0CF90CFA0CF90CFA0CF90CFA0CFC
:1014D000F90CFA0CF90CFA0CF90C0130FA05790840
:1014E000A0380138BC00BD008A11E9258A15F70132
:1014F0000830BC007708BD00831609140330F700DC
:10150000F70B802A89148312891C842A0918031472
:10151000091C0310F80D0430F700F70B8D2A831611
:10152000891083128910BC0B7C2A8316091403309E
:10153000F700F70B992A831209103D080319A32A13
:101540008316091083120000831689148312891CE4
:10155000A72A0430F700F70BAB2A891083168910ED
:101560000330F700F70BB22A831209108316091013
:1015700078088312BA0083160910000089148312B8
:10158000891CC02A0430F700F70BC42AC72A0000C0
:10159000831609140430F700F70BCC2A83123A089B
:1015A000F8007808B7006430C1008A118B238A15CF
:1015B0008A11BE248A150230C0000130C1008A1190
:1015C00088248A153708A8008A115B248A150430FC
:1015D000B800FA30C1008A118B238A15B80BE92AAA
:1015E0006F2C6F2C6F2C6F2C6F2C6F2C6F2C6F2C23
:1015F0006F2C6F2C6F2C6F2C6F2C6F2C6F2C6F2C13
:101600006F2C6F2C6F2C6F2C6F2C8A11BE248A15B7
:10161000A90129088A113E228A15003A03191B2BB9
:1016200029088A113E228A15F800A8008A115B2435
:101630008A15A90A092B0230C0000130C1008A11A5
:1016400088248A15A90129088A1153218A15003A8C
:101650000319352B29088A1153218A15F800A8008F
:101660008A115B248A15A90A232B83168C148312F2
:10167000AC080319382B013003178D0083168C1327
:101680000C1483120C0803194A2B04300313B700FF
:101690004D2B031705300313B700AC080319802B3B
:1016A0002C08043A0319582B013A0319672B782B9D
:1016B00083168C1083122C08B70038100230B90042
:1016C000BA008A11AB258A1583168C147E2B8316DB
:1016D0008C1083122C08B70038140230B90009307E
:1016E000BA008A11AB258A1583168C147E2B8312BF
:1016F00083168C1083123708AC00831683124D2B8F
:1017000083168C1083123818A02B013003178D001C
:101710008C0083168C130C15831203130B08F7002F
:101720008B138316031755308D00AA308D008C144F
:101730008C18982B0C117708831203138B04BA2B87
:10174000013003178D008C0183168C130C15831246
:1017500003130B08F7008B138316031755308D0006
:10176000AA308D008C148C18B32B0C1177088312BF
:1017700003138B046F2C8A11BE248A15A901290832
:101780008A1153228A15003A0319D12B29088A118C
:1017900053228A15F800A8008A115B248A15A90A29
:1017A000BF2B0230C0000130C1008A1188248A1585
:1017B000A90129088A1153218A15003A0319EB2B34
:1017C00029088A1153218A15F800A8008A115B2480
:1017D0008A15A90AD92B83168C148312AC08031915
:1017E000EE2B03178D0183168C130C1483120C0837
:1017F0000319FF2B04300313B700022C0317053025
:101800000313B700AC080319352C2C08043A03194C
:101810000D2C013A03191C2C2D2C83168C108312CD
:101820002C08B70038100230B900BA008A11AB2575
:101830008A1583168C14332C83168C1083122C0873
:10184000B70038140230B9000930BA008A11AB254C
:101850008A1583168C14332C831283168C108312F2
:101860003708AC0083168312022C83168C10831267
:101870003818552C03178D0101308C0083168C13FA
:101880000C15831203130B08F7008B138316031731
:1018900055308D00AA308D008C148C184D2C0C11F5
:1018A0007708831203138B046E2C03178D018C01B0
:1018B00083168C130C15831203130B08F7008B137C
:1018C0008316031755308D00AA308D008C148C18A8
:1018D000672C0C117708831203138B046F2C8A1565
:1018E0000A12F42D0A108A100A15820707283228D6
:1018F0005D288828B3285729582959295A299C290D
:10190000F12AF22AF32AF42AF52AF62AF72AF82AE3
:10191000F92AFA2AFB2AFC2AFD2AFE2AFF2A002B92
:10192000012B022B032B042B052BBB2B84018313D0
:101930001F30830583161F149F141F159F11073036
:101940009C00FF308312B000B101B2018316010880
:10195000C039073881003830F80006388312920009
:10196000FF308316920083128B1683168C10C030C2
:1019700083128B0483161F149F141F159F110030B0
:101980008500F03087008312B00000308316880095
:10199000831288010808870088130130B600B70158
:1019A0008A112C2C8A150130BA00BB01BC018A11A6
:1019B0004C248A158A11952C8A158A11BE248A1501
:1019C00083168C1483122E08B6008A11C22C8A1535
:1019D000AC080319E82C2C0BEE2CE82C2C08023C4C
:1019E0000319E82C0430AC002C0BF72CFA2C2C0833
:1019F000023C0319502D2C0803190B2D043A03192E
:101A00000C2D013A03191A2D033A0319292D0E3A08
:101A10000319382D482D612D83168C1083122C0844
:101A2000AF000130B900BA008A11AB258A158316C0
:101A30008C144E2D83168C1083122C08AF000130AD
:101A4000B9000930BA008A11AB258A1583168C14A7
:101A50004E2D83168C1083122C08AF000230B90073
:101A60000130BA008A11AB258A1583168C144E2DCD
:101A700083168C1083122C08AF000230B900093095
:101A8000BA008A11AB258A1583168C144E2D831249
:101A900083168C1083122F08AC0083168312F42C4B
:101AA00083168C1083122C08023C0319AE0A2C0BEF
:101AB0005C2DAE08031DAE032E08083C0319AE01D1
:101AC000E02C2E08063C031CB02D013003178D00BE
:101AD00083168C130C1483120C08031D712D031331
:101AE000B02D8A110313C22D8A15AC080319752D68
:101AF00083168C1004308312B300AC080319B02D88
:101B00002C08043A0319882D013A0319972DA82DA2
:101B100083168C1083122C08B3002B100230B900EE
:101B2000BA008A11AB258A1583168C14AE2D831644
:101B30008C1083122C08B3002B140230B90009302A
:101B4000BA008A11AB258A1583168C14AE2D831228
:101B500083168C1083123308AC00831683127D2DFC
:101B600083168C1083122B1CC62D013003178D0099
:101B700083168C130C1483120C08031DC12D031340
:101B8000C62D03132E08073C031D4D2E04302F02D3
:101B9000FB3E0318F12D053E4F2E2E0DF700F70DDD
:101BA000FC30F7057708013EAD00F12D2E0DF70052
:101BB000F70DFC30F7057708023EAD00F12D2E0D34
:101BC000F700F70DFC30F7057708033EAD00F12D67
:101BD0002E0DF700F70DFC30F7057708043EAD0039
:101BE000F12D2D08B60000288A11672E8A15AE083F
:101BF00003194D2E2E08063C031C4D2E03178D0194
:101C000083168C130C1483120C08031D092E031366
:101C10004D2E8A110313802E8A1583168C1483127D
:101C2000AC080319102E0430B400AC080319482E78
:101C30002C08043A0319202E013A03192F2E402EA6
:101C400083168C1083122C08B40035100230B900B2
:101C5000BA008A11AB258A1583168C14462E83167A
:101C60008C1083122C08B40035140230B9000930EE
:101C7000BA008A11AB258A1583168C14462E83125E
:101C800083168C1083123408AC0083168312152E31
:101C900083168C108312351CAE01DD2C63000A10F4
:101CA0008A140A158207CD2DD62DDF2DF12DE82DB2
:02400E003A3F37
:00000001FF
;PIC16F877A
