:030220008FFE222C
:030223008FFD222A
:10016600E4FDFCC3ED9FEC9E50070DBD00010C8025
:01017600F296
:010177002265
:080210007F8C12022002022380
:0A0184007F9B1202207F8C020223F1
:0A018E007FB41202207F8C020223CE
:0A0198007FC31202207F8C020223B5
:0A01A2007FD21202207F8C0202239C
:0A01AC007FE11202207F8C02022383
:0A01B6007FF01202207F8C0202236A
:0A01C0007FFF1202207F8C02022351
:0A01CA007F8C1202207F9B020223AB
:0A01D4007F8C1202207FB402022388
:0A01DE007F8C1202207FC30202236F
:0A01E8007F8C1202207FD202022356
:0A01F2007F8C1202207FE10202233D
:0A01FC007F8C1202207FF002022324
:0A0206007F8C1202207FFF0202230A
:08021800E4FF120220020223A0
:1000C0003081047F0180027F003080047E01800245
:1000D0007E00EE2FFF3082047E0180027E00EF2E34
:1000E000FF3083047E0180027E00EF2EFF30840407
:1000F0007E0180027E00EF2EFF3085047E018002AB
:100100007E00EF2EFF3086047E0180027E00EF2EFF
:0D011000FF3087047E0180027E00EF2EFF8D
:01011D0022BF
:100003008F08D292D2937FE87E03120166E5807057
:100013000512021880F78508A0AF80EF12011E00B9
:100023006E01006402006903005A04005F06005079
:100033000800550C007310007D20007830008740C5
:10004300008260009180008CC00000009612018441
:10005300804412018E803F120198803A1201A280DF
:10006300351201AC80301201B6802B1201C08026FC
:100073001201CA80211201D4801C1201DE801712E2
:1000830001E880121201F2800D1201FC80081202B5
:100093000680031202101200C0EFC394055003023E
:1000A300001C1200C0EFC39405400512021080F239
:0D00B3001508E508D394004003020019224F
:10014400E4F5D9D2DE75DB4275DC4275DD4275DE3D
:10015400427F051200031202187F647E00120166BA
:0201640080F425
:0300000002017882
:0C017800787FE4F6D8FD75810802014490
:10011E00D083D082F8E4937012740193700DA3A370
:10012E0093F8740193F5828883E473740293686084
:06013E00EFA3A3A380DF84
:00000001FF
