:1000000000308A007E2800000A108A100A11820738
:10001000C034F934A434B034993492348234F8348E
:100020008034903427308400831300080319252876
:100030000630F800F701F70B1B28F80B1A287B3065
:10004000F700F70B2128800B182800342908F80145
:10005000280203182E282808F7003A28F70108304C
:10006000AA00A80DF70D290877020318F700F80D6C
:10007000AA0B3128003427080420F800F8000034C7
:100080002408A7002708A8000A30A900262078081D
:10009000A0002708A8000A30A90026207708A100A0
:1000A000A6012508260203187B282108A7003B206B
:1000B000831686018312780886000030A20083161A
:1000C00087010130831287003230A70012202008F8
:1000D000A7003B2083168601831278088600003033
:1000E000A200831687010230831287003230A700F6
:1000F0001220A60A51288A110A12AB288401831300
:100100001F30830583161F149F141F159F1107307E
:100110009C00FF308312A200A301831608148312EF
:1001200008189A282308623C031C9A281930A70053
:100130001220A30A8316881483128818A628A308FD
:100140000319A6281930A7001220A3032308A4002E
:0A0150000130A50040288D2863004F
:02400E003A3F37
:00000001FF
;PIC16F877A
