:1000000000308A0018280000233084008313000881
:10001000031917280630F800F701F70B0D28F80B25
:100020000C287B30F700F70B1328800B0A280034CC
:10003000840183131F30830583161F149F141F151B
:100040009F1107309C0001308312A10021087F3CE2
:10005000031C35280310A10D831688018312210883
:1000600088006430A300042026280330A100210862
:100070007F3C031C46280310A10D831688018312C0
:10008000210888006430A3000420372883168801E3
:100090000130831288006430A30004208316880195
:1000A0000330831288006430A30004208316880183
:1000B0000730831288006430A30004200730A100B9
:1000C00021087F3C031C6F280310A10D83168801B3
:1000D0008312210888006430A3000420602883165E
:1000E00088018030831288006430A30004208316C6
:1000F0008801C030831288006430A3000420831676
:1001000088017030831288006430A30004207030AE
:10011000A1002108013C031898280310A10C8316A4
:1001200088018312210888006430A30004208928F4
:100130000130A100210F9D28AA280310210D013EA6
:10014000A100831688018312210888006430A3006F
:1001500004209A28FF30A1002108013C0318BF2881
:1001600001302102F7000310770CA10083168801EB
:100170008312210888006430A3000420AC28831671
:1001800088010130831288000330A200C830A30028
:100190000420A20BC6280130A1002108543C031CF6
:1001A000E628210DF700F70DFC30F7057708013E32
:1001B000A100831688018312210888000330A20061
:1001C000C830A3000420A20BE028CD280130A100F4
:1001D0002108143C031CFE2883168801AA308312D0
:1001E00088006430A30004208316880155308312F0
:1001F00088006430A3000420A10AE828A101210896
:10020000073C031C26290130A2002108F80003192D
:100210000D290310A20DF80B09292108073CF8004D
:100220000130F700F808031919290310F70DF80B2E
:10023000152977082207A300831688018312230853
:1002400088006430A3000420A10AFF28FF30A10029
:10025000A10803193D2983168801FF308312880005
:100260002108A30004208316880183128801210835
:10027000A30004200530A102282983162328630047
:02400E003A3F37
:00000001FF
;PIC16F877A
