:1000000008308A007A290000FF00030E8301A10056
:100010000A08A0008A010408A2007708A300780853
:10002000A4007908A5007A08A6007B08A70083131E
:1000300083128C308400801C1F288C1846288B1E4D
:1000400023280B1949280B1E27288B1840288C3091
:100050008400001C2D280C18432822088400230843
:10006000F7002408F8002508F9002608FA002708F8
:10007000FB0020088A00210E8300FF0E7F0E09007E
:100080008A110A12DB2A8A110A12FC2A8A110A1220
:10009000002B8A110A12DF2A0A108A100A1182071D
:1000A0004D34653474346534723420343134003462
:1000B0000A108A100A118207283453344D345334FD
:1000C00029342034323400340A108A100A1182078D
:1000D000543469346D34653472342034333400342C
:1000E0000A108A100A118207433461346C34633475
:1000F00020342034343400340A108A100A11820764
:10010000473450345234533420342034353400349E
:100110000A108A100A118207433444344D344134A2
:1001200020342034363400340A108A100A11820731
:100130004F34463444344D34203420343734003482
:100140000A108A100A118207463450344734413469
:1001500020342034383400340A108A100A118207FF
:10016000503443344D342034203420343934003476
:100170000A108A100A118207503457344D34203443
:1001800020343134303400340A108A100A118207C6
:10019000503441344D34203420343134313400343F
:1001A0000A108A100A1182074D3465346E34753492
:1001B00020343134323400340A108A100A11820794
:1001C0004D3465346E347534203431343334003476
:1001D0000A108A100A1182074D3465346E34753462
:1001E00020343134343400340A108A100A11820762
:1001F0004D3465346E347534203431343534003444
:100200000A148A100A1182074D3465346E3475342D
:1002100020343134363400340A148A100A1182072B
:100220004D3465346E347534203431343734003411
:100230000A148A100A1182074D3465346E347534FD
:1002400020343134383400340A148A100A118207F9
:100250004D3465346E3475342034313439340034DF
:100260000A148A100A1182074D3465346E347534CD
:1002700020343234303400340A148A100A118207D0
:100280004D3465346E3475342034323431340034B6
:100290000A148A100A1182074D3465346E3475349D
:1002A00020343234323400340A148A100A1182079E
:1002B0004D3465346E347534203432343334003484
:1002C0000A148A100A1182074D3465346E3475346D
:1002D00020343234343400340A148A100A1182076C
:1002E0004D3465346E347534203432343534003452
:1002F0000A148A100A1182074D3465346E3475343D
:1003000020343234363400340A148A100A11820739
:100310004D3465346E34753420343234373400341F
:100320000A148A100A1182074D3465346E3475340C
:1003300020343234383400340A148A100A11820707
:100340004D3465346E3475342034323439340034ED
:100350000A148A100A1182074D3465346E347534DC
:1003600020343334303400340A148A100A118207DE
:100370004D3465346E3475342034333431340034C4
:100380000A148A100A1182074D3465346E347534AC
:1003900020343334323400340A148A100A118207AC
:1003A0004D3465346E347534203433343334003492
:1003B0000A148A100A1182074D3465346E3475347C
:1003C00020343334343400340A148A100A1182077A
:1003D0004D3465346E347534203433343534003460
:1003E0000A148A100A1182074D3465346E3475344C
:1003F00020343334363400340A108A140A11820748
:100400004D3465346E34753420343334373400342D
:100410000A108A140A1182074D3465346E3475341B
:1004200020343334383400340A108A140A11820715
:100430004D3465346E3475342034333439340034FB
:100440000A108A140A1182074D3465346E347534EB
:1004500020343434303400340A108A140A118207EC
:10046000503472346F3463346534733473342E34DF
:100470002E342E3400340A108A140A1182074C34A8
:100480006F34763465345F3459346F3475345F3487
:1004900046346F34723465347634653472340034E3
:1004A0000A108A140A11820753346C346F3477347B
:1004B0006C346F34763465345F34573469346E3459
:1004C0006E3465347234213400340A108A140A11EF
:1004D000820720342D342D34323439342F343034E3
:1004E00036342F3432343034303438342D342D34E3
:1004F00000340A108A140A118207423441344E34FF
:10050000203451345534593445344E342034533426
:100510005034203443345534413400340A108A14A2
:100520000A11820753346C346F3477346C346F346F
:10053000763465342D342834323439342F34303421
:100540003634293400340A108A140A1182074334DD
:100550006F3420346D3475346F346E34203463342A
:100560006834613479342034433454343F340034B3
:100570000A108A140A118207203420345934453471
:10058000533420343134203420344E344F3420342A
:1005900032342034203400340A108A140A118207BD
:1005A00043346F346D3470346C3465347434653472
:1005B0002034213400348B108A110A122D28B10AFC
:1005C00031080A3C031DF82A3008B00AF80003304D
:1005D000B700F8080319F02A0310B70DF80BEC2A3E
:1005E00083168501831237088500B019B001B10167
:1005F0000B118A110A122D280C108A110A122D28AB
:10060000013087000030071A0130B7000030871A28
:100610000130F7000310F70D77083707B9000030F5
:10062000071B0130F700F70DF70DFC30F7057708D1
:100630003907BB000030871B0130F700F70DF70DBD
:10064000F70DF830F70577083B07013A0319322B0D
:10065000033A0319352B063A0319382B0C3A0319C0
:100660003B2B3E2B0C30AB00402B0D30AB00402B16
:100670000E30AB00402B0F30AB00402B1030AB00E6
:10068000023087000030071A0130B7000030871AA7
:100690000130F7000310F70D77083707B900003075
:1006A000071B0130F700F70DF70DFC30F705770851
:1006B0003907BB000030871B0130F700F70DF70D3D
:1006C000F70DF830F70577083B07013A0319722B4D
:1006D000033A0319752B063A0319782B0C3A0319C0
:1006E0007B2B7E2B0830AB007E2B0930AB007E2BA2
:1006F0000A30AB007E2B0B30AB007E2B0430870022
:100700000030071A0130B7000030871A0130F700B7
:100710000310F70D77083707B9000030071B0130C9
:10072000F700F70DF70DFC30F70577083907BB0028
:100730000030871B0130F700F70DF70DF70DF8308B
:10074000F70577083B07013A0319B02B033A031961
:10075000B32B063A0319B62B0C3A0319B92BBC2B51
:100760000430AB00BC2B0530AB00BC2B0630AB001B
:10077000BC2B0730AB00BC2B083087000030071AB9
:100780000130B7000030871A0130F7000310F70D71
:1007900077083707B9000030071B0130F700F70D65
:1007A000F70DFC30F70577083907BB000030871BD1
:1007B0000130F700F70DF70DF70DF830F705770862
:1007C0003B07013A0319EE2B033A0319F02B063AC3
:1007D0000319F32B0C3A0319F62BF92BAB01F92B68
:1007E0000130AB00F92B0230AB00F92B0330AB002A
:1007F000F92B87018C108A110A122D2835308400BC
:10080000831300080319112C0630F800F701F70BC9
:10081000072CF80B062C7B30F700F70B0D2C800B08
:10082000042C00340815000008110034081088104A
:10083000281E8811281A8815A81E0812A81A08163A
:10084000281F8812281B8816A81F0813A81B081722
:1008500012240430F700F70B2B2C2E2C281C8811A7
:1008600028188815A81C0812A8180816281D881210
:1008700028198816A81D0813A81908171224533020
:10088000F700F70B412C00342830B500FE23320E60
:10089000F700F030F7057708203EB500330DF7007C
:1008A000F70DF70DF830F70577083507B600340D6A
:1008B000F700F70DFC30F70577083607A800081099
:1008C0008810281E8811281A8815A81E0812A81A30
:1008D0000816281F8812281B8816A81F0813A81B93
:1008E00008170815000008115330F700F70B762C95
:1008F00016248A150A12B729320DF700F70DFC30BD
:10090000F7057708083EB5000310330D35073407A7
:10091000A80016248A150A12BE2908148810281E59
:100920008811281A8815A81E0812A81A0816281F48
:100930008812281B8816A81F0813A81B0817122442
:100940000430F700F70BA22CA52C281C88112818BE
:100950008815A81C0812A8180816281D881228191E
:100960008816A81D0813A819081712245330F70079
:10097000F70BB82C0034350BC22C01303602803E08
:10098000A800C62C01303602C03EA8001624003450
:10099000A90129087922003A0319D52C29087922BE
:1009A000F800A8008D24A90AC92C0230B500013036
:1009B000B600BB24A90129088E22003A0319E72CAE
:1009C00029088E22F800A8008D24A90ADB2C043007
:1009D000B200FA30B500FE23B20BE92C8A150A12D8
:1009E000C1290130A800162400343208F63E03184D
:1009F000CB2F0A3ECE2F0130B5000230B600BB240B
:100A0000A90129084C20003A03190D2D29084C2072
:100A1000F800A8008D24A90A012D0130B5000A3084
:100A2000B600BB24A90129085820003A03191F2D3C
:100A300029085820F800A8008D24A90A132D023097
:100A4000B500B600BB24A90129086420003A0319A7
:100A5000302D29086420F800A8008D24A90A242D2F
:100A60000230B5000A30B600BB24A9012908702065
:100A7000003A0319422D29087020F800A8008D249F
:100A8000A90A362DCB2F0130B5000230B600BB24A9
:100A9000A90129087C20003A0319552D29087C203A
:100AA000F800A8008D24A90A492D0130B5000A30AC
:100AB000B600BB24A90129088820003A0319672D34
:100AC00029088820F800A8008D24A90A5B2D02308F
:100AD000B500B600BB24A90129089420003A0319E7
:100AE000782D29089420F800A8008D24A90A6C2DDF
:100AF0000230B5000A30B600BB24A9012908A020A5
:100B0000003A03198A2D2908A020F800A8008D2496
:100B1000A90A7E2DCB2F0130B5000230B600BB24D0
:100B2000A9012908AC20003A03199D2D2908AC2001
:100B3000F800A8008D24A90A912D0130B5000A30D3
:100B4000B600BB24A9012908B820003A0319AF2D2B
:100B50002908B820F800A8008D24A90AA32D023086
:100B6000B500B600BB24A9012908C420003A031926
:100B7000C02D2908C420F800A8008D24A90AB42D8E
:100B80000230B5000A30B600BB24A9012908D020E4
:100B9000003A0319D22D2908D020F800A8008D248E
:100BA000A90AC62DCB2F0130B5000230B600BB24F8
:100BB000A9012908DC20003A0319E52D2908DC20C9
:100BC000F800A8008D24A90AD92D0130B5000A30FB
:100BD000B600BB24A9012908E820003A0319F72D23
:100BE0002908E820F800A8008D24A90AEB2D02307E
:100BF000B500B600BB24A9012908F420003A031966
:100C0000082E2908F420F800A8008D24A90AFC2D3C
:100C10000230B5000A30B600BB24A9012908002122
:100C2000003A03191A2E29080021F800A8008D2483
:100C3000A90A0E2ECB2F0130B5000230B600BB241E
:100C4000A90129080C21003A03192D2E29080C218D
:100C5000F800A8008D24A90A212E0130B5000A3021
:100C6000B600BB24A90129081821003A03193F2E18
:100C700029081821F800A8008D24A90A332E023073
:100C8000B500B600BB24A90129082421003A0319A4
:100C9000502E29082421F800A8008D24A90A442EEA
:100CA0000230B5000A30B600BB24A9012908302162
:100CB000003A0319622E29083021F800A8008D247B
:100CC000A90A562ECB2F0130B5000230B600BB2446
:100CD000A90129083C21003A0319752E29083C2155
:100CE000F800A8008D24A90A692E0130B5000A3049
:100CF000B600BB24A90129084821003A0319872E10
:100D000029084821F800A8008D24A90A7B2E02306A
:100D1000B500B600BB24A90129085421003A0319E3
:100D2000982E29085421F800A8008D24A90A8C2E99
:100D30000230B5000A30B600BB24A90129086021A1
:100D4000003A0319AA2E29086021F800A8008D2472
:100D5000A90A9E2ECB2F0130B5000230B600BB246D
:100D6000A90129086C21003A0319BD2E29086C211C
:100D7000F800A8008D24A90AB12E0130B5000A3070
:100D8000B600BB24A90129087821003A0319CF2E07
:100D900029087821F800A8008D24A90AC32E023062
:100DA000B500B600BB24A90129088421003A031923
:100DB000E02E29088421F800A8008D24A90AD42E49
:100DC0000230B5000A30B600BB24A90129089021E1
:100DD000003A0319F22E29089021F800A8008D246A
:100DE000A90AE62ECB2F0130B5000230B600BB2495
:100DF000A90129089C21003A0319052F29089C21E3
:100E0000F800A8008D24A90AF92E0130B5000A3097
:100E1000B600BB24A9012908A821003A0319172FFD
:100E20002908A821F800A8008D24A90A0B2F023058
:100E3000B500B600BB24A9012908B421003A031962
:100E4000282F2908B421F800A8008D24A90A1C2FF6
:100E50000230B5000A30B600BB24A9012908C02120
:100E6000003A03193A2F2908C021F800A8008D2460
:100E7000A90A2E2FCB2F0130B5000230B600BB24BB
:100E8000A9012908CC21003A03194D2F2908CC21AA
:100E9000F800A8008D24A90A412F0130B5000A30BE
:100EA000B600BB24A9012908D821003A03195F2FF5
:100EB0002908D821F800A8008D24A90A532F023050
:100EC000B500B600BB24A9012908E421003A0319A2
:100ED000702F2908E421F800A8008D24A90A642FA6
:100EE0000230B5000A30B600BB24A9012908F02160
:100EF000003A0319822F2908F021F800A8008D2458
:100F0000A90A762FCB2F0130B5000230B600BB24E2
:100F1000A9012908FC21003A0319952F2908FC2171
:100F2000F800A8008D24A90A892F0130B5000A30E5
:100F3000B600BB24A90129080822003A0319A72FEB
:100F400029080822F800A8008D24A90A9B2F023046
:100F5000B500B600BB24A90129081422003A0319E0
:100F6000B82F29081422F800A8008D24A90AAC2F54
:100F70000230B5000A30B600BB24A901290820229E
:100F8000003A0319CA2F29082022F800A8008D244E
:100F9000A90ABE2FCB2F8A150A12CD290A148A144A
:100FA0000A158207FB2C432D8B2DD32D1B2E632E70
:100FB000AB2EF32E3B2F832F3308B5003408B60039
:100FC000BB247E30A8008D241430B500FE233308E6
:100FD000B5003408B600BB242030A8008D2414309E
:060FE000B500FE23003401
:101000008A11F1248A15A90129088A11A3228A15B7
:10101000003A0319162829088A11A3228A15F80014
:10102000A8008A118D248A15A90A04280230B50067
:101030000130B6008A11BB248A15A90129088A113A
:10104000B8228A15003A0319302829088A11B822D3
:101050008A15F800A8008A118D248A15A90A1E286D
:101060008A150A12652A01303202D83E0318222955
:10107000283E25298A11F1248A15A90129088A11F7
:101080002C228A15003A0319502829088A112C228B
:101090008A15F800A8008A118D248A15A90A3E280D
:1010A0000230B5000130B6008A11BB248A15A901AF
:1010B000291A6A28FF30A8008A118D248A15023067
:1010C000B3009630B5008A11FE238A15B30B612850
:1010D000A90A582822298A11F1248A15A901290868
:1010E0008A113B228A15003A0319812829088A119E
:1010F0003B228A15F800A8008A118D248A15A90AB6
:101100006F280230B5000130B6008A11BB248A1561
:10111000A901291A9B28FF30A8008A118D248A155D
:101120000230B3009630B5008A11FE238A15B30B46
:101130009228A90A892822298A11F1248A15A9014D
:1011400029088A1150228A15003A0319B228290861
:101150008A1150228A15F800A8008A118D248A1558
:10116000A90AA0280230B5000130B6008A11BB24BC
:101170008A15A901291ACC28FF30A8008A118D24CC
:101180008A150230B3009630B5008A11FE238A1505
:10119000B30BC328A90ABA2822298A11F1248A1577
:1011A000A90129088A1165228A15003A0319E32842
:1011B00029088A1165228A15F800A8008A118D2451
:1011C0008A15A90AD1280230B5000130B6008A116B
:1011D000BB248A15A901291AFD28FF30A8008A110D
:1011E0008D248A150230B3009630B5008A11FE2393
:1011F0008A15B30BF428A90AEB28222922292229CF
:101200002229222922292229222922292229222986
:101210002229222922292229222922292229222976
:101220002229222922292229222922292229222966
:101230002229222922292229222922292229222956
:10124000222922298A150A12A52A0A148A100A11AB
:1012500082073A286B289C28CD28FE28FF280029E1
:101260000129022903290429052906290729082912
:1012700009290A290B290C290D290E290F291029C2
:101280001129122913291429152916291729182972
:1012900019291A291B291C291D291E291F29202922
:1012A00021298A11F1248A150130B5000430B600D5
:1012B0008A11BB248A15A90129088A11CC228A1512
:1012C000003A03196E2929088A11CC228A15F800E0
:1012D000A8008A118D248A15A90A5C290430B2005D
:1012E000C830B5008A11FE238A15B20B70298A1501
:1012F0000A12A62A840183131F30830583161F1444
:101300009F141F159F1107309C00FF308312AF0000
:10131000B001B10183160108C039073881003830A7
:10132000F800063883129200FF3083169200831271
:101330008B1683168C10C03083128B0483161F14F7
:101340009F141F159F1100308500F0308700831215
:10135000AF000030831688008312880108088700D8
:101360008813B2010130B300B4018A11442C8A15EC
:101370000130B200B301B4018A117C2C8A158A11A4
:10138000C82C8A158A11F1248A15AD0183168C1494
:1013900083122D08B2008A11F52C8A15AB080319A7
:1013A000CE292B0BD429CE292B08023C0319CE2998
:1013B0000430AB002B0BDD29E0292B08023C03197C
:1013C000562A2B080319F129043A0319F229013A84
:1013D0000319082A033A03191F2A0E3A0319362A59
:1013E0004E2A642A83168C1083122B08AE002D0D12
:1013F000F700F70DFC30F7057708013EAC0001302F
:10140000B300B4008A11DC278A1583168C14542A81
:1014100083168C1083122B08AE002D0DF700F70DEC
:10142000FC30F7057708023EAC000130B30009300C
:10143000B4008A11DC278A1583168C14542A83166B
:101440008C1083122B08AE002D0DF700F70DFC3029
:10145000F7057708033EAC000230B3000130B4005A
:101460008A11DC278A1583168C14542A83168C1053
:1014700083122B08AE002D0DF700F70DFC30F70599
:101480007708043EAC000230B3000930B4008A1182
:10149000DC278A1583168C14542A831283168C1029
:1014A00083122E08AB0083168312DA292B08023C24
:1014B0000319AD0A2B0B5F2AAD08031DAD032D08E0
:1014C0000A3C0319AD01C9290028AB080319652A94
:1014D0000430AB00AB0803199D2A2B08043A03190A
:1014E000752A013A0319842A952A83168C108312CF
:1014F0002B08AE002A100230B300B4008A11DC279A
:101500008A1583168C149B2A83168C1083122B0841
:10151000AE002A140230B3000930B4008A11DC276F
:101520008A1583168C149B2A831283168C108312BF
:101530002E08AB00831683126A2A83168C1083123E
:101540002A18A62A2C08B20033285129C229630080
:02400E003A3F37
:00000001FF
;PIC16F877A
