:03026E008FFE22DE
:030271008FFD22DC
:040188007F207E4E08
:10018C00E4FDFCC3ED9FEC9E50070DBD00010C80FF
:01019C00F270
:01019D00223F
:0A01D0007F8712026E7F8C0202711D
:0A01DA007F9B12026E7F8C020271FF
:0A01E4007FAF12026E7F8C020271E1
:0A01EE007FC312026E7F8C020271C3
:0A01F8007FD712026E7F8C020271A5
:0A0202007FE112026E7F8C02027190
:0A020C007FFF12026E7F8C02027168
:0A0216007FFF12026E7F8202027168
:0A0220007F8C12026E7FAA020271A9
:0A022A007F8C12026E7FB902027190
:0A0234007F8C12026E7FC802027177
:0A023E007F8C12026E7FEB0202714A
:0A0248007F8C12026E7FFA02027131
:0A0252007F8C12026E7FFF02027122
:0A025C007F7812026E7FFF0202712C
:08026600E4FF12026E020271B6
:1000C8003081047F0180027F003080047E0180023D
:1000D8007E00EE2FFF3082047E0180027E00EF2E2C
:1000E800FF3083047E0180027E00EF2EFF308404FF
:1000F8007E0180027E00EF2EFF3085047E018002A3
:100108007E00EF2EFF3086047E0180027E00EF2EF7
:0D011800FF3087047E0180027E00EF2EFF85
:0101250022B7
:100003008F08D292D293120188E58070051202669E
:1000130080F7AF80EF120162006701005D020062AA
:1000230003005304005806004908004E0C006C10EE
:10003300007620007130008040007B60008A8000E1
:1000430085C00000008F1201DA80441201E4803F72
:100053001201EE803A1201F880351202028030124A
:10006300020C802B1202168026120220802112021B
:100073002A801C120234801712023E801212024898
:10008300800D120252800812025C80031201D0120A
:1000930000C8EFC3940550030200151200C8EFC354
:1000A300940540051201D080F21508E508600302AB
:1000B3000015F5081201D07F607EEA12018C7F30B3
:0500C3007E7502018CB6
:10019E00C293D292120188E580642060051201DAC2
:0301AE0080F522B7
:1001B100D293C292120188E580640460051201D0D5
:0301C10080F522A4
:10012600E4F5D9D2DE75DB4275DC4275DD4275DE5B
:10013600427B05AF0312000312019E7F01120003EA
:1001460012019EDBEE1201B11201B17F0212000311
:0C0156001202667F647E0012018C80F4AF
:030000000201C436
:0C01C400787FE4F6D8FD75810802012662
:10016200D083D082F8E4937012740193700DA3A32C
:1001720093F8740193F5828883E473740293686040
:06018200EFA3A3A380DF40
:00000001FF
