:1000000008308A00C62A0000FF00030E8301A10009
:100010000A08A0008A010408A2007708A300780853
:10002000A4007908A5007A08A6007B08A70083131E
:1000300083128C308400801C1F288C1846288B1E4D
:1000400023280B1949280B1E27288B1840288C3091
:100050008400001C2D280C18432822088400230843
:10006000F7002408F8002508F9002608FA002708F8
:10007000FB0020088A00210E8300FF0E7F0E09007E
:100080008A110A12572A8A110A12782A8A110A1228
:100090007C2A8A110A125B2A0A108A100A11533E1E
:1000A00003188A0A82004D3465347434653472341E
:1000B000203431340034283453344D34533429340B
:1000C000203432340034543469346D34653472343D
:1000D000203433340034433461346C34633420349A
:1000E00020343434003447345034523453342034C0
:1000F000203435340034433444344D3453342034C4
:100100002034363400344F34463444344D342034B3
:1001100020343734003446345034473441342034AA
:100120002034383400342834503443344D342934A6
:100130002034393400342834503457344D34293481
:100140003134303400342834503441344D3429347F
:10015000313431340034283450344F345734293456
:100160003134323400346D3465346E3475342034B7
:100170003134333400346D3465346E3475342034A6
:100180003134343400346D3465346E347534203495
:100190003134353400346D3465346E347534203484
:1001A0003134363400346D3465346E347534203473
:1001B0003134373400346D3465346E347534203462
:1001C0003134383400346D3465346E347534203451
:1001D0003134393400346D3465346E347534203440
:1001E0003234303400346D3465346E347534203438
:1001F0003234313400346D3465346E347534203427
:100200003234323400346D3465346E347534203415
:100210003234333400346D3465346E347534203404
:100220003234343400346D3465346E3475342034F3
:100230003234353400346D3465346E3475342034E2
:100240003234363400346D3465346E3475342034D1
:100250003234373400346D3465346E3475342034C0
:100260003234383400346F347034743431342034E0
:100270003234393400346F347034743432342034CE
:100280003334303400346F347034413453344B34AD
:100290003334313400346F34703448344F344D3497
:1002A0003334323400340A148A100A11820720349D
:1002B00020345934453453342034313420342034FC
:1002C0004E344F34203432342034203400340A1475
:1002D0008A100A118207423441344E34203451349A
:1002E0005534593445344E3420345334503420344A
:1002F00043345534413400340A148A100A118207F9
:1003000053346C346F3477346C346F3476346534F2
:100310002D342834323439342F34303436342934BF
:1003200000340A148A100A11820743346F342034CF
:100330006D3475346F346E34203463346834613412
:1003400079342034433454343F3400340A148A104E
:100350000A11820743346F346D3470346C34653461
:10036000743465342034213400340A148A100A119C
:10037000820747344F3420342234423445344734E2
:1003800049344E345F345034413447344534223498
:1003900020343F3400340A148A100A118207503482
:1003A00072346F3463346534733473342E342E34C2
:1003B0002E3400340A148A100A1182074C346F3428
:1003C000763465345F3459346F3475345F34463471
:1003D0006F347234653476346534723400340A1400
:1003E0008A100A11F63E03188A0A820053346C34CC
:1003F0006F3477346C346F34763465345F3457340B
:1004000069346E346E3465347234213400340A1029
:100410008A140A1182072D342D34323439342F34A2
:10042000303436342F3432343034303438342D34A0
:100430002D3400340A108A140A11820741346C34B6
:100440006C347734613479342034413473346B3410
:10045000203450346C34613479343F3400340A1021
:100460008A140A11820741346C346C347734613455
:1004700079342034413473346B3447346F34483426
:100480006F346D34653400340A108A140A118207FF
:100490004E3475346D3462346534723450345234B1
:1004A0004F344734523441344D343A3400348B1095
:1004B0008A110A122D28B20A32080A3C031D742A36
:1004C0003108B10AF8000330C100F80803196C2A9A
:1004D0000310C10DF80B682A8316850183124108A9
:1004E0008500B119B101B2010B118A110A122D2830
:1004F0000C108A110A122D28013087000030071ACB
:100500000130C1000030871A0130F7000310F70DE9
:1005100077084107C3000030071B0130F700F70DD3
:10052000F70DFC30F70577084307C5000030871B3F
:100530000130F700F70DF70DF70DF830F7057708E4
:100540004507013A0319AE2A033A0319B12A063ABC
:100550000319B42A0C3A0319B72ABA2A0C30AC0092
:10056000BC2A0D30AC00BC2A0E30AC00BC2A0F30C7
:10057000AC00BC2A1030AC00023087000030071AF3
:100580000130C1000030871A0130F7000310F70D69
:1005900077084107C3000030071B0130F700F70D53
:1005A000F70DFC30F70577084307C5000030871BBF
:1005B0000130F700F70DF70DF70DF830F705770864
:1005C0004507013A0319EE2A033A0319F12A063ABC
:1005D0000319F42A0C3A0319F72AFA2A0830AC0056
:1005E000FA2A0930AC00FA2A0A30AC00FA2A0B3099
:1005F000AC00FA2A043087000030071A0130C1002D
:100600000030871A0130F7000310F70D7708410713
:10061000C3000030071B0130F700F70DF70DFC3069
:10062000F70577084307C5000030871B0130F70046
:10063000F70DF70DF70DF830F70577084507013A84
:1006400003192C2B033A03192F2B063A0319322BCB
:100650000C3A0319352B382B0430AC00382B0530FD
:10066000AC00382B0630AC00382B0730AC00382BF0
:10067000083087000030071A0130C1000030871AA7
:100680000130F7000310F70D77084107C300003071
:10069000071B0130F700F70DF70DFC30F705770861
:1006A0004307C5000030871B0130F700F70DF70D39
:1006B000F70DF830F70577084507013A03196A2B5B
:1006C000033A03196C2B063A03196F2B0C3A0319E2
:1006D000722B752BAC01752B0130AC00752B0230E1
:1006E000AC00752B0330AC00752B87018C108A1180
:1006F0000A122D283C3084008313000803198D2B27
:100700000630F800F701F70B832BF80B822B7B30B8
:10071000F700F70B892B800B802B0034081088140E
:100720000817881608168815081100000815081BF8
:10073000942B0034081500000811003408108810AC
:100740008E23281E8811281A8815A81E0812A81A98
:100750000816281F8812281B8816A81F0813A81B14
:1007600008179A238E23281C881128188815A81C7E
:100770000812A8180816281D881228198816A81DFE
:100780000813A81908179A2300342830BC007A23CC
:10079000370EF700F030F7057708203EBA00380D25
:1007A000F700F70DF70DF830F70577083A07BB00AB
:1007B000390DF700F70DFC30F70577083B07A80067
:1007C00008108810281E8811281A8815A81E0812DB
:1007D000A81A0816281F8812281B8816A81F081395
:1007E000A81B08170815000008115330F700F70B75
:1007F000F72B9E238A150A12022B370DF700F70DEF
:10080000FC30F7057708083EBA000310380D3A07A8
:100810003907A8009E238A150A12092B081488108C
:100820008E23281E8811281A8815A81E0812A81AB7
:100830000816281F8812281B8816A81F0813A81B33
:1008400008179A238E23281C881128188815A81C9D
:100850000812A8180816281D881228198816A81D1D
:100860000813A81908179A2300343C0B3C2C0130BC
:100870003D02803EA800402C01303D02C03EA80051
:100880009E230034A90129086721003A03194F2C3F
:1008900029086721F800A8000E24A90A432C023079
:1008A000BC000130BD003524A90129087C21003A93
:1008B0000319612C29087C21F800A8000E24A90A3C
:1008C000552C0430B700C830BC007A23B70B632C1A
:1008D0008A150A120C2B0130A8009E230034370D14
:1008E000AA00AA0DFC30AA050130BC000230BD00F0
:1008F0003524A9012A0DB800B901B90DB80DB90DFB
:10090000B80DB90DF830B80529083807F8003908CE
:10091000FA000318FA0A78084C20003A0319A82CA8
:100920002A0DB800B901B90DB80DB90DB80DB90D42
:10093000F830B80529083807F8003908FA00031814
:10094000FA0A78084C20F800A8000E24A90A7A2C8C
:100950000130BC000A30BD003524A90101302A074E
:10096000F900790DB900BA01BA0DB90DBA0DB90D7A
:10097000BA0DF830B90529083907F8003A08FA0025
:100980000318FA0A78084C20003A0319E22C0130C7
:100990002A07F900790DB900BA01BA0DB90DBA0DDF
:1009A000B90DBA0DF830B90529083907F8003A0829
:1009B000FA000318FA0A78084C20F800A8000E2460
:1009C000A90AAE2C0230BC00BD003524A9010230BA
:1009D0002A07F900790DB900BA01BA0DB90DBA0D9F
:1009E000B90DBA0DF830B90529083907F8003A08E9
:1009F000FA000318FA0A78084C20003A03191B2D54
:100A000002302A07F900790DB900BA01BA0DB90D03
:100A1000BA0DB90DBA0DF830B90529083907F80033
:100A20003A08FA000318FA0A78084C20F800A800DF
:100A30000E24A90AE72C0230BC000A30BD00352480
:100A4000A90103302A07F900790DB900BA01BA0DDE
:100A5000B90DBA0DB90DBA0DF830B9052908390725
:100A6000F8003A08FA000318FA0A78084C20003A0D
:100A70000319552D03302A07F900790DB900BA0181
:100A8000BA0DB90DBA0DB90DBA0DF830B90529086E
:100A90003907F8003A08FA000318FA0A78084C20D7
:100AA000F800A8000E24A90A212D8A150A12182B75
:100AB0002030A8000E2400343A08BC003B08BD00DA
:100AC00035247E30A8000E241430BC007A233A0866
:100AD000BC003B08BD00352458251430BC007A23E7
:100AE00000348E23081488149A23003088190130AA
:100AF000F700770EBB00F030BB050030081A01305C
:100B0000F700F70EF70DE030F70577083B07BD005B
:100B10000030881A0130F700F70EF70DF70DC030DE
:100B2000F70577083D07BF000030081B0130F700CC
:100B3000770CF7010318F71777083F07B8008E23E3
:100B4000081488149A23003088190130BA00003044
:100B5000081A0130F7000310F70D77083A07BC00B8
:100B60000030881A0130F700F70DF70DFC30F7055B
:100B700077083C07BE000030081B0130F700F70D76
:100B8000F70DF70DF830F70577083E07B90039087B
:100B90003807F80000346B24A90129089121003A94
:100BA0000319D92D29089121F800A8000E24A90ABB
:100BB000CD2D0230BC000130BD003524A90129082B
:100BC0005321003A0319EB2D29085321F800A800FE
:100BD0000E24A90ADF2D8A150A12C92CFF30A8009D
:100BE0000E2400346B240130BC000430BD003524D9
:100BF000A9012908A621003A0319052E2908A621D2
:100C0000F800A8000E24A90AF92DC830BC007A23E8
:100C10008A150A12472D6B24A9012908B521003A2B
:100C20000319192E2908B521F800A8000E24A90AD5
:100C30000D2E0230BC000130BD003524A901290869
:100C40005321003A03192B2E29085321F800A8003C
:0C0C50000E24A90A1F2E8A150A125D2D21
:101000003708013A03196228033A03198D28013A77
:101010000319B828073A0319E328013A03190E29DE
:10102000033A03190F29013A031910290F3A03193A
:101030001129013A03191229033A03191329013A14
:1010400003191429073A03191529013A0319162916
:10105000033A03191729013A031918291F3A0319EA
:101060001929013A03191A29033A03191B29013ACC
:1010700003191C29073A03191D29013A03191E29CE
:10108000033A03191F29013A031920290F3A0319BA
:101090002129013A03192229033A03192329013A84
:1010A00003192429073A03192529013A0319262986
:1010B000033A03192729013A031928293F3A03194A
:1010C000DE29922A8A116B248A15A90129088A111E
:1010D000CB218A15003A0319782829088A11CB21D7
:1010E0008A15F800A8008A110E248A15A90A662814
:1010F0000230BC000130BD008A1135248A15A901D7
:10110000291A8C288A11EE258A156430BC008A11B0
:101110007A238A15A90A8028C32A8A116B248A1582
:10112000A90129088A11DA218A15003A0319A3288E
:1011300029088A11DA218A15F800A8008A110E24DC
:101140008A15A90A91280230BC000130BD008A111D
:1011500035248A15A901291AB7288A11EE258A157E
:101160006430BC008A117A238A15A90AAB28C32AE5
:101170008A116B248A15A90129088A11EF218A1581
:10118000003A0319CE2829088A11EF218A15F800A0
:10119000A8008A110E248A15A90ABC280230BC00B6
:1011A0000130BD008A1135248A15A901291AE228C7
:1011B0008A11EE258A156430BC008A117A238A15BB
:1011C000A90AD628C32A8A116B248A15A9012908DD
:1011D0008A1107228A15003A0319F92829088A1169
:1011E00007228A15F800A8008A110E248A15A90A78
:1011F000E7280230BC000130BD008A1135248A1571
:10120000A901291A0D298A11EE258A156430BC001E
:101210008A117A238A15A90A0129C32AC32AC32A53
:10122000C32AC32AC32AC32AC32AC32AC32AC32A56
:10123000C32AC32AC32AC32AC32AC32AC32AC32A46
:10124000C32AC32AC32AC32AC32AC32AC32AC32A36
:101250008A116B248A15A90129088A111A228A1574
:10126000003A03193E2929088A111A228A15F80022
:10127000A8008A110E248A15A90A2C290230BC0064
:101280000130BD008A1135248A15A90129088A1167
:1012900053218A15003A0319582929088A11532124
:1012A0008A15F800A8008A110E248A15A90A462971
:1012B00083168C148312AC0803195B2901300317C1
:1012C0008D0083168C130C1483120C0803196D29DE
:1012D00004300313B8007029031705300313B80056
:1012E000AC080319A3292C08043A03197B29013AF5
:1012F00003198A299B2983168C1083122C08B800A5
:1013000039100230BA00BB008A115C258A15831699
:101310008C14A12983168C1083122C08B800391460
:101320000230BA000930BB008A115C258A15831689
:101330008C14A129831283168C1083123808AC00F8
:1013400083168312702983168C1083123918C329CF
:10135000013003178D008C0083168C130C1583123B
:1013600003130B08F7008B138316031755308D00FA
:10137000AA308D008C148C18BB290C1177088312AD
:1013800003138B04DD29013003178D008C018316B4
:101390008C130C15831203130B08F7008B138316A1
:1013A000031755308D00AA308D008C148C18D62967
:1013B0000C117708831203138B04C32A8A116B2440
:1013C0008A15A90129088A112F228A15003A0319C2
:1013D000F42929088A112F228A15F800A8008A11F9
:1013E0000E248A15A90AE2290230BC000130BD0092
:1013F0008A1135248A15A90129088A1153218A15D1
:10140000003A03190E2A29088A1153218A15F80077
:10141000A8008A110E248A15A90AFC2983168C14A7
:101420008312AC080319112A03178D0183168C133C
:101430000C1483120C080319222A04300313B80079
:10144000252A031705300313B800AC080319582ADE
:101450002C08043A0319302A013A03193F2A502A6A
:1014600083168C1083122C08B80039100230BA0091
:10147000BB008A115C258A1583168C14562A8316A4
:101480008C1083122C08B80039140230BA000930CD
:10149000BB008A115C258A1583168C14562A831288
:1014A00083168C1083123808AC0083168312252A09
:1014B00083168C1083123918782A03178D01013096
:1014C0008C0083168C130C15831203130B08F70082
:1014D0008B138316031755308D00AA308D008C14A2
:1014E0008C18702A0C117708831203138B04912A2D
:1014F00003178D018C0183168C130C1583120313B3
:101500000B08F7008B138316031755308D00AA3094
:101510008D008C148C188A2A0C11770883120313FF
:101520008B04C32A8A116B248A150130BC00BD00CC
:101530008A1135248A153830A8008A110E248A159C
:10154000FF30A8008A110E248A150130BC00BD00AE
:101550008A1135248A158A1171258A157808A80000
:101560000230BC000130BD008A1135248A158A1171
:101570000E248A152830B800FA30BC008A117A236C
:101580008A15B80BBC2A8A150A12452D84018313CB
:101590001F30830583161F149F141F159F110730DA
:1015A0009C00FF308312B000B101B2018316010824
:1015B000C039073881003830F800063883129200AD
:1015C000FF308316920083128B1683168C10C03066
:1015D00083128B0483161F149F141F159F11003054
:1015E0008500F03087008312B00000308316880039
:1015F0008312880108088700B7010130B800B901DB
:101600008A11C52B8A150130B700B801B9018A11BA
:10161000FD2B8A158A11422C8A15AB108A116B2476
:101620008A1583168C1483122E08B7008A116F2C2A
:101630008A15AC080319192B2C0B1F2B192B2C08FE
:10164000023C0319192B0430AC002C0B282B2B2B3C
:101650002C08023C03198A2B2C0803193F2B033A50
:101660000319402B073A0319462B013A0319542B4F
:10167000033A0319632B0E3A0319722B822BB62CF3
:101680002C08033C0319402BAB149A2B83168C10A7
:1016900083122C08AF000130BA00BB008A115C2510
:1016A0008A1583168C14882B83168C1083122C08B1
:1016B000AF000130BA000930BB008A115C258A15E1
:1016C00083168C14882B83168C1083122C08AF0081
:1016D0000230BA000130BB008A115C258A158316DE
:1016E0008C14882B83168C1083122C08AF000230C8
:1016F000BA000930BB008A115C258A1583168C1448
:10170000882B831283168C1083122F08AC0083164B
:101710008312252B83168C1083122C08023C03198C
:10172000AE0A2C0B962BAE08031DAE032E08083C08
:101730000319AE01AB1CB52C83168C10023083123A
:1017400003178D0001308C0083168C130C15831247
:1017500003130B08F7008B138316031755308D0006
:10176000AA308D008C148C18B32B0C1177088312BF
:1017700003138B04AB148A116B248A15A901290861
:101780008A1144228A15003A0319D12B29088A119B
:1017900044228A15F800A8008A110E248A15A90A85
:1017A000BF2B0230BC000130BD008A1135248A15E0
:1017B00083168C1483122C08F13E0318B42C0F3EB0
:1017C000A22D330BEF2B0230BC000130BD008A117B
:1017D00035248A158A1171258A157808AD00B62C32
:1017E0002C08033C0319F02B023003178D008C01E9
:1017F00083168C130C15831203130B08F7008B133D
:101800008316031755308D00AA308D008C148C1868
:10181000072C0C117708831203138B040D2B2C0B50
:10182000122C0F2C3308013C031C1C2C3030A80058
:101830008A110E248A15B30AB42C2C08043C03190F
:101840001D2C3308013C031C2A2C3130A8008A11BE
:101850000E248A15B42C2C08053C03192B2C3308B4
:10186000013C031C382C3230A8008A110E248A1542
:10187000B42C2C08063C0319392C3308013C031CFA
:10188000462C3330A8008A110E248A15B42C2C085B
:10189000083C0319472C3308013C031C542C3430FA
:1018A000A8008A110E248A15B42C2C08093C0319AF
:1018B000552C3308013C031C622C3530A8008A11DA
:1018C0000E248A15B42C2C080A3C0319632C330807
:1018D000013C031C702C3630A8008A110E248A1596
:1018E000B42C2C080C3C0319712C3308013C031C4C
:1018F0007E2C3730A8008A110E248A15B42C2C08AF
:101900000D3C03197F2C3308013C031C8C2C383010
:10191000A8008A110E248A15B42C2C080E3C031939
:101920008D2C3308013C031C9A2C3930A8008A11F5
:101930000E248A15B42C2C08073C03199B2C02306A
:10194000BC000130BD008A1135248A158A11582542
:101950008A158A1158258A150230BC000130BD0055
:101960008A1135248A15B42CDB2B112B2E08063C4A
:10197000031C052D013003178D0083168C130C14E6
:1019800083120C08031DC62C0313052D8A110313A3
:10199000CB2D8A15AC080319CA2C83168C10043081
:1019A0008312B400AC080319052D2C08043A03195E
:1019B000DD2C013A0319EC2CFD2C83168C108312BC
:1019C0002C08B4002B100230BA00BB008A115C2531
:1019D0008A1583168C14032D83168C1083122C0801
:1019E000B4002B140230BA000930BB008A115C2508
:1019F0008A1583168C14032D831283168C10831280
:101A00003408AC0083168312D22C83168C108312F8
:101A10002B1C152D013003178D0083168C130C140D
:101A200083120C08031D9F2D0313AB18422D0430A5
:101A30002F02FB3E0318422D053EB52D2E0DF7005B
:101A4000F70DFC30F7057708013EAD00422D2E0D55
:101A5000F700F70DFC30F7057708023EAD00422D88
:101A60002E0DF700F70DFC30F7057708033EAD00AB
:101A7000422D2E0DF700F70DFC30F7057708043ED8
:101A8000AD00422D2D08B70000288A11F22D8A15CD
:101A9000AE0803199E2D2E08063C031C9E2D03172D
:101AA0008D0183168C130C1483120C08031D5A2D00
:101AB00003139E2D8A1103130B2E8A1583168C1483
:101AC0008312AC080319612D0430B500AC0803196A
:101AD000992D2C08043A0319712D013A0319802D10
:101AE000912D83168C1083122C08B500361002300D
:101AF000BA00BB008A115C258A1583168C14972DB9
:101B000083168C1083122C08B50036140230BA00EC
:101B10000930BB008A115C258A1583168C14972D19
:101B2000831283168C1083123508AC00831683123F
:101B3000662D83168C108312361CAE010317031317
:101B40000D2B63000A148A100A158207E12B0F2C53
:101B5000B42CF02B1D2C2B2C392C9B2C472C552CCA
:101B6000632CB42C712C7F2C8D2C0A148A100A152E
:0C1B700082071E2D272D302D422D392D0F
:02400E003A3F37
:00000001FF
;PIC16F877A
